:020000040800F2
:100000001004002069010008AD010008A9010008E2
:1000100000000000000000000000000000000000E0
:10002000000000000000000000000000B101000816
:100030000000000000000000AF01000801020008FD
:100040007B0100087B0100087B0100087B010008A0
:100050007B0100087B0100087B0100087B01000890
:100060007B0100087B0100087B0100087B01000880
:100070007B0100087B0100087B0100087B01000870
:100080007B0100087B0100087B0100087B01000860
:100090007B0100087B0100087B0100087B01000850
:1000A0007B0100087B0100087B0100087B01000840
:1000B0007B0100087B0100087B0100087B01000830
:1000C0007B0100087B0100087B0100087B01000820
:1000D0007B0100087B010008000000007B01000894
:1000E0007B0100087B0100087B0100087B01000800
:1000F0000000000000000000000000007B0100087C
:1001000000000000000000000000000000000000EF
:100110000000000000000000000000007B0100085B
:100120007B0100087B0100087B0100087B010008BF
:100130007B0100087B0100087B0100087B010008AF
:100140007B0100087B0100087B0100087B0100089F
:100150007B0100080348854600F014F8004800477A
:100160008D0400081004002004488047044800471C
:10017000FEE7FEE7FEE7FEE7FEE7FEE7090200080E
:1001800055010008064C0125064E05E0E36807CC42
:100190002B430C3C98471034B442F7D3FFF7DEFFF3
:1001A0000407000824070008FFE7FEE770477047D0
:1001B0007047000080B584B002900298401E000E87
:1001C00018B1FFE70120039011E00298401E094991
:1001D000086000200190C043032100F05DF8019801
:1001E00005490860054A072111600390FFE703985D
:1001F00004B080BD14E000E018E000E010E000E092
:1002000080B500F09BF880BD80B582B0EA490868EF
:10021000012210430860FFE7E748006880070028D4
:1002200001D4FFE7F8E715490868154A104008604F
:100230000868144A10400860DF490868124A1040F4
:100240000860124908680F22904308601049086846
:1002500040F203129043086008680322920790431B
:1002600008600C4900200190086000F023FA019911
:100270000120C00600F07EF902B080BD04100240EB
:100280000C00FF08FFFF007FFFFFF2FE2C10024072
:10029000301002400810024070B582B0024601A83A
:1002A00002700091007840B2002817D4FFE701A93E
:1002B000087840B20322D3431840184A805809787E
:1002C00049B28C07E50EFF24AC40A043009CA4017A
:1002D000E4B2AC402043194088501AE001A90878E4
:1002E0000F24204008380322D34318400A4A80587C
:1002F000097849B28D07EE0EFF25B540A843009D51
:10030000AD01EDB2B540284321400839194088506D
:10031000FFE702B070BDC0461CED00E000E400E065
:1003200081B0009000980A490860FFE7084800681B
:1003300008B1FFE7FAE701B07047C046044800681B
:1003400028B1FFE702490868401E0860FFE77047D0
:100350000800002082B00190009100980199886205
:1003600002B0704782B001900091009801998861B5
:1003700002B0704787B006900591049203930698E7
:10038000006801900698C068009002A900200880CB
:10039000FFE702A800880F282BD8FFE702A80188F2
:1003A0000398C840C007F0B1FFE702A801884900E0
:1003B000032213468B40019999430191059B0188C3
:1003C00049008B40019919430191018849008A40F5
:1003D0000099914300910499008840008140009861
:1003E00008430090FFE7FFE70298401C02A908803D
:1003F000CFE701980699086000980699C86007B091
:10040000704710B586B0059004A80170039202935E
:100410000078012806D1FFE7029A05994868104341
:10042000486005E0029A0599486890434860FFE7F4
:1004300005988068009001A900200880FFE701A8C6
:1004400000880F281DD8FFE701A801880298C8403E
:10045000C00780B1FFE701A80188490003228A4054
:1004600000999143009103990088400081400098D1
:1004700008430090FFE7FFE70198401C01A90880AE
:10048000DDE700980599886006B010BD80B58EB094
:10049000002007900D9000F011F9324800F07AF832
:1004A000314800F077F8079A0920C0060990012129
:1004B000069140F280130A93FFF75CFF07990998B1
:1004C0000A9B03220892FFF79CFF0699079A274888
:1004D0000B90C0230C93FFF74DFF0799089A0B98D8
:1004E0000C9BFFF78EFF09980A99FFF733FF0B98D3
:1004F0000C99FFF72FFFFFE70920C006009080212D
:100500000291FFF72FFF029918480390FFF722FF8F
:100510001748FFF705FF009840F200110191FFF71F
:1005200021FF00980299FFF715FF40F2F4100590A3
:10053000FFF7F6FE039840210491FFF713FF0098A0
:100540000199FFF707FF0598FFF7EAFE0299039864
:10055000FFF708FF03980499FFF7FCFE0598FFF7E3
:10056000DFFEC9E711050000130500000008004880
:10057000DC05000082B00190009101980099034AC7
:10058000114008430249086002B0704780FFFF1F16
:1005900008ED00E081B001466846018000881F2216
:1005A0000146114001238B4081093C4A8858184379
:1005B000885001B07047C0460010024010B584B0AA
:1005C000002003900290354908680122120410436C
:1005D0000860FFE70398401C039030480068012141
:1005E000490408400290FFE702990020019039B9C0
:1005F000FFE703982A49401A411E88410190FFE70E
:100600000198C0070028E5D1FFE72448006880036F
:10061000002802D4FFE7FFE7FEE72249086801222D
:1006200010430623984308601F490091086808603A
:1006300008680860086840F20043184308601B4BD4
:1006400018680F24A04318600868194B1840086008
:10065000086819231B04184308601049086812062B
:1006600010430860FFE70D4800688001002801D4AE
:10067000FFE7F8E70C490868032290430860086820
:10068000022210430860FFE7074800680C21084079
:10069000082801D0FFE7F7E704B010BD00100240C2
:1006A000FFFF000000200240041002402C10024016
:1006B000FFFF007F80B5FFF781FF80BD80B5084850
:1006C000006840F2E831B0FBF1F0FFF773FD10B1C4
:1006D000FFE7FFE7FEE70021C843FFF7DDFD80BD30
:1006E0000000002002E008C8121F08C1002AFAD149
:1006F00070477047002001E001C1121F002AFBD1A2
:1007000070470000280700080000002008000000D3
:10071000E406000830070008080000200804000074
:10072000F4060008000000000090D0030000000064
:040000050800015599
:00000001FF
