:020000040800F2
:10000000C017002069010008D90E0008ED010008A2
:1000100000000000000000000000000000000000E0
:100020000000000000000000000000005F15000854
:1000300000000000000000005D150008FD1600082B
:100040007B0100087B0100087B0100087B010008A0
:100050007B0100087B0100087B0100087B01000890
:100060007B0100087B0100087B0100087B01000880
:100070007B0100087B0100087B0100087B01000870
:100080007B0100087B0100087B0100087B01000860
:100090007B0100087B0100087B0100087B01000850
:1000A0007B0100087B0100087B0100087B01000840
:1000B0007B0100087B0100087B0100087B01000830
:1000C0007B0100087B0100087B0100087B01000820
:1000D0007B0100087B010008000000007B01000894
:1000E0007B0100087B0100087B0100087B01000800
:1000F0000000000000000000000000007B0100087C
:1001000000000000000000000000000000000000EF
:100110000000000000000000000000007B0100085B
:100120007B0100087B0100087B0100087B010008BF
:100130007B0100087B0100087B0100087B010008AF
:100140007B0100087B0100087B0100087B0100089F
:100150007B0100080348854600F036F80048004758
:10016000C9300008C01700200448804704480047F1
:10017000FEE7FEE7FEE7FEE7FEE7FEE705170008FD
:1001800055010008D2B201E00270401C491EFBD2AA
:1001900070470022F6E710B513460A460446194692
:1001A000FFF7F0FF204610BD30B50546002003469E
:1001B00000E05B1C934205D2EC5CC85C201A01D1C4
:1001C000002CF6D130BD0000064C0125064E05E09E
:1001D000E36807CC2B430C3C98471034B442F7D368
:1001E000FFF7BCFF20ED000840ED0008FFE7FEE749
:1001F00080B590B009200290C006009008210191BE
:1002000002F026FB009810210C9102F021FB0098CF
:1002100020210B9102F014FB01200A9002F066F9F4
:1002200000980B9902F014FBE52048F2000100F061
:10023000F3F80A9900200E9000F0EEF80A980E9953
:1002400000F0EAF80220089040F2007100F0E4F8B3
:1002500003200D90694900F0DFF80E990420079003
:1002600000F0DAF80198664900F0D6F802980E9985
:1002700000F0D2F80E990A2000F0CEF80E990C206A
:10028000069000F0C9F80E990D2000F0C5F80E99FF
:100290000F2000F0C1F80C980E9900F0BDF8112065
:1002A000039007210F9100F0B7F80E9912200490E7
:1002B00000F0B2F80E991320059000F0ADF80C98FC
:1002C000504900F0A9F803980F9900F0A5F8049898
:1002D00040F23A1100F0A0F8059841F6002100F034
:1002E0009BF80699292000F097F80E99302000F02D
:1002F00093F83120444900F08FF80799322000F03C
:100300008BF83520062100F087F836203F49099107
:1003100000F082F8372040F2051100F07DF80899CE
:10032000382000F079F80999392000F075F83C2060
:10033000374900F071F83D20364900F06DF80E990C
:10034000502000F069F85120EF2100F065F80E9977
:10035000522000F061F8532040F23F1100F05CF8A9
:10036000602042F2007100F057F80A99612000F015
:1003700053F80E996A2000F04FF80E99212000F0F2
:100380004BF80B980E9900F047F80E99802000F07A
:1003900043F80E99812000F03FF80E99822000F07A
:1003A0003BF80E99832000F037F80E99842000F076
:1003B00033F80E99852000F02FF80C99902000F06A
:1003C0002BF80E99922000F027F80D99932000F059
:1003D00023F8952040F2101100F01EF80E99972096
:1003E00000F01AF80E99982000F016F80F9840F2D5
:1003F000731100F011F810B080BDC0461810000055
:1004000002020000B0170000050500000707000009
:10041000040700000708000080B586B0024605A862
:10042000027004910499090A03AA009211700499B8
:1004300002AA019211700178002001F0ADF9009834
:1004400001990078097801F0EBF906B080BD80B51C
:1004500084B0039002910192009303995020FFF71A
:10046000DBFF02995120FFF7D7FF01995220FFF7D8
:10047000D3FF00995320FFF7CFFF03992020FFF708
:10048000CBFF01992120FFF7C7FF0020222101F0B7
:1004900083F904B080BD000082B00190684600215D
:1004A00001700199CA00BF498B185A685B78DA401D
:1004B00001231A400270019AD2008A185178491C0F
:1004C0005170007802B0704710B597B01690A548EB
:1004D000007881060F20072203920029049001D49E
:1004E0000398049004980FA9087016989E4A1278F1
:1004F000521CD2B2801A139013980A780146114008
:10050000884201D0FFE72AE1964801780322114092
:100510000CAA11700078C006002804D5FFE79348A4
:100520008068029003E0914840680290FFE70298DB
:10053000069016988E490978401814901498F0285F
:1005400009DBFFE71498F03814900C98022148401A
:100550000CA90870FFE71498C00811A90870854914
:100560000878814AD2788018C20810A80270149BBB
:100570000722134013930978114012910078202824
:1005800006DBFFE70C98012148400CA90870FFE743
:100590000CA80078810075484018C16811A800783F
:1005A000420110A80378D2188A5C0BA90A70069A37
:1005B0000B781B01139C1B19D35C0AAA1370069BB2
:1005C00009780901139C0919C9180B7A0A9919436A
:1005D00011700078401C202806DBFFE70C980121F1
:1005E00048400CA90870FFE70CA8007881005F481C
:1005F0004018C16811A80078400110AA127880182C
:10060000401841780BA80170069902781201139BDB
:10061000D2188A5C09A90A70069A00780001139B17
:10062000C0188018027A0998104308700AA8007848
:10063000129A90400978D140084308A908704A48A6
:1006400080780006002806D5FFE70FA800781399E8
:10065000401A1390FFE7434880788006002827D58A
:10066000FFE741484078C00720B1FFE73F48806876
:10067000019003E03D4840680190FFE70198059034
:1006800039484078FE210840010107A801800599FA
:100690000288139BD2188A5C0EA90A70059A0088FA
:1006A000139BC0188018027A0E981043087025E03A
:1006B000EE4800780007002804D5FFE7EC48806882
:1006C000009003E0EA4840680090FFE7009805903A
:1006D00025484078010107A8018005990288139BED
:1006E000D2188A5C0EA90A70059A0088139BC0185C
:1006F0008018027A0E9810430870FFE71A48807835
:100700004006002820D5FFE70DA9002008701590AD
:10071000FFE71598072813DCFFE70EA80178159866
:10072000C140012001400D9808430DA90870159A99
:10073000087890400870FFE71598401C1590E8E78E
:100740000D980EA90870FFE70EA8007808A909788F
:10075000084204D0FFE7084901200870FFE717B0FE
:1007600010BDC046800A0020880A0020440A0020EC
:10077000420A0020410A0020890B0020094900227A
:100780000A704A70012003054B600A724A72C00465
:10079000C8607047034901220A70002048700A723D
:1007A00048707047300200207047000080B584B068
:1007B000039002910399202240F21F130846FFF78D
:1007C00046FE08200190FFE70198C00820280BD8BA
:1007D000FFE701984100A948405A01F067F8FFE798
:1007E0000198401C0190EFE704B080BDB0B590B017
:1007F0000F909E4801780322114003AA11700078DF
:10080000C006002804D5FFE799488068009003E0FF
:10081000974840680090FFE7009801900F9895492D
:10082000097840180D900D98F02809DBFFE70D9826
:10083000F0380D9003980221484003A90870FFE7A3
:100840000D98C01009900D98072210400C908A480E
:10085000017811400B910B9A0821891A0A910078AE
:10086000C0080890FFE708981F2877DCFFE703A976
:100870000A787F480C3092008258099B5B01089CE3
:100880001B19D35C02AA1370019B147824010C9DE0
:1008900064191B5D06AC2370019B127812010C9C3D
:1008A0001219D218127A07AB1A70097889004158C8
:1008B00009988008C000089A92108018401840F2E9
:1008C000C031405C04A908700878099A02242240CB
:1008D0005200089B2340D218D0408007000F0870B8
:1008E00007200E90FFE70E98002832D4FFE7049906
:1008F00005A8017006A90A780E99CA4001210A408C
:1009000005991143017007A909780E9AD140C907CA
:100910008A0F0599114301700078800780B1FFE7C5
:1009200005A80178D6484018007F4100D548405AB4
:100930000A994A00D04988520A98401C0A9003E05C
:100940000A98401C0A90FFE7FFE70E98401E0E90A1
:10095000C9E7FFE70898401C089084E70398012145
:10096000484003A9087000200890FFE70898424912
:100970000978C908884277DCFFE703A90A78C048EC
:100980000C3092008258099B5B01089C1B19D35CB8
:1009900002AA1370019B147824010C9D64191B5D3D
:1009A00006AC2370019B127812010C9C1219D2180C
:1009B000127A07AB1A7009788900415809988008A3
:1009C000C000089A92108018401840F2C031405C74
:1009D00004A908700878099A022422405200089B52
:1009E0002340D218D0408007000F087007200E90D7
:1009F000FFE70E98002832D4FFE7049905A801709C
:100A000006A90A780E99CA4001210A4005991143A6
:100A1000017007A909780E9AD140C9078A0F059974
:100A2000114301700078800780B1FFE705A80178C5
:100A3000F3484018007F4100F248405A0A994A00A2
:100A4000F14988520A98401C0A9003E00A98401C19
:100A50000A90FFE7FFE70E98401E0E90C9E7FFE7F8
:100A60000898401C089081E710B0B0BD800A0020B3
:100A7000440A0020420A0020410A00200800002009
:100A800080B588B007907B488178DF221140817063
:100A90004078C006800F00B9D2E007200690FFE73B
:100AA0000698FF280EDCFFE7FA48007F4100D54892
:100AB000405A06994A00D4498852FFE70698401CDC
:100AC0000690EDE76B480090007881060F20072222
:100AD00001920029029001D4019802900098029995
:100AE00004914078C00600284DD5FFE7002005900E
:100AF0003F200690FFE70698002843D4FFE70698BA
:100B000081005E48401880788006002801D4FFE705
:100B100034E0079806998A005849895C491CC9B293
:100B2000401A03900398049A01461140884201D06C
:100B3000FFE723E00598401C05900598092806DB8F
:100B4000FFE7E44988782022104388701AE0E148E2
:100B500000788006002808D5FFE7069881004748FE
:100B60004018039900F052F907E0069881004348C5
:100B70004018039900F090F9FFE7FFE70698401E40
:100B80000690B8E7FFE7D34840780007002804D56F
:100B9000FFE70798FFF72AFEFFE7CE484078C00638
:100BA00000284CD5FFE7002005903F200690FFE786
:100BB0000698002842D4FFE7069881002F48401885
:100BC00080788006002801D5FFE733E00799069872
:100BD00082002A48805CC043401803900398049A1E
:100BE00001461140884201D0FFE723E00598401CF0
:100BF00005900598092806DBFFE7B649887820228A
:100C0000104388701AE0B34800788006002808D5A1
:100C1000FFE70698810019484018039900F0F6F89C
:100C200007E00698810015484018039900F034F950
:100C3000FFE7FFE70698401E0690B9E7FFE713E0DD
:100C400008200690FFE7069840F2071188420ADC68
:100C5000FFE7069842006C4900208852FFE706989B
:100C6000401C0690EFE7FFE707986749FFF79EFDF6
:100C700008B080BD800A002008000020880A0020FB
:100C8000440A00208640000810B589B008900791FA
:100C900006A8028005A80370012078B9FFE708982C
:100CA000C07807280ADCFFE70898C1780820401AB6
:100CB0000390039808B9FFE79FE002E0002003904B
:100CC000FFE7089880780006002806D5FFE7059919
:100CD0000720401A05A90870FFE7079906A80388AE
:100CE00005AA14781B19C95C6B461970079900880E
:100CF000127880184018007A01A908700898807846
:100D0000400600283BD5FFE707200490FFE7049842
:100D10000399884232DBFFE7684601780498C140B6
:100D20000120014002A8017001A90978049AD1406C
:100D3000C9078A0F029911430170007808B9FFE7CB
:100D400018E0089880788007000F0299014302A8F4
:100D500001700178D64840182C21405C4100294898
:100D6000405A0899C978049A89184900264A89186E
:100D70000882FFE70498401E0490C8E73DE0072082
:100D80000490FFE704980399884235DBFFE7684643
:100D9000017804980722101AC1400120014002A8DE
:100DA000017001A90978049BD21AD140C9078A0FA2
:100DB000029911430170007808B9FFE718E008981C
:100DC00080788007000F0299014302A80170017822
:100DD000F54840182C21405C41000A48405A0899C7
:100DE000C978049A89184900074A89180882FFE7D8
:100DF0000498401E0490C5E7FFE709B010BDC04647
:100E0000440A0020864000080800002010B582B087
:100E10000190009101984078C007E0B1FFE7009889
:100E200007280CDCFFE70198DF4989684278FE2338
:100E30001A4012016B461B78FFF726FF0AE0019863
:100E4000D949896842781201009B07242340FFF7A3
:100E50001BFFFFE71BE0009807280ADCFFE701986B
:100E6000D1494968427812016B461B78FFF70CFFA5
:100E70000CE00198CC4949684278120110231A43CA
:100E8000009B07242340FFF7FFFEFFE7FFE702B0C8
:100E900010BDC046440A002080B584B00390029182
:100EA000C34800780007002804D5FFE7F5488068AC
:100EB000009003E0F34840680090FFE7009801903D
:100EC000039801994278120102AB1B78FFF7DCFE10
:100ED00004B080BD800A00207047000080B582B059
:100EE0004A4900200860FFE74948007800B98BE0D4
:100EF00046490868401C0860714900200870734921
:100F00000860FFE771480068132809DCFFE77120DB
:100F100001F098FBFFE76D490868401C0860F1E7A5
:100F2000712001F08FFB69490868401C0860D649B0
:100F30008878BF2210408870FFE76448006840F25C
:100F4000041188424CDCFFE75D48007801281CD181
:100F5000FFE7CD4880784006002816D4FFE72E48EA
:100F60000068C178712000904843000A0190019800
:100F700001F068FB0098C44A9178402319439170AE
:100F80000199401A01F05EFB03E0712001F05AFB69
:100F9000FFE7BD484078C006800F58B1FFE74848DA
:100FA000007830B9FFE7494800681538FFF78CFA38
:100FB000FFE7FFE7154801681848484318494018FB
:100FC0001849884206D8FFE7404800681538FFF7FF
:100FD00057FDFFE7FFE73D490868401C0860ACE7A4
:100FE000712001F02FFBA848817880221143817085
:100FF00000780006002804D5FFE7064901200870A4
:10100000FFE7FFF7D1FB6FE702B080BD28020020A9
:10101000000000204002002018ED0008CDCCCCCC10
:10102000999999193233333380B584B0039002A86B
:1010300001900170D54800903C21FFF7AAF81D48A7
:1010400040F20111FFF7A5F8009A01988E4B00219C
:10105000D97099705970197003995160039941F2D0
:101060000003C9189160007850B9FFE7C7491248DA
:10107000C860086140F2004280184861886109E058
:10108000C2490D4ACA6040F20040101808614A6126
:101090008861FFE70949002008700949087009497B
:1010A000087009490870F249086004B080BDC04664
:1010B000440A0020880A002041020020430A002040
:1010C000890B0020420A0020410A0020840A0020E7
:1010D00080B582B0AD48817801AA117000884FF2C6
:1010E00000010840009090B1FFE7009841F2000134
:1010F000884212D0FFE7009842F20001884214D0E3
:10110000FFE7009843F20001884213D033E09F4983
:1011100048680A88805C887031E09C4988680A8841
:101120009B4B1A40805C887029E000F0AFF897492B
:10113000887024E0954800881C4988420ADBFFE754
:10114000924801880F22114040182C21405C01A9CF
:10115000087014E08D48008843F60071884209DB6E
:10116000FFE78A4801880F2211404018007F01A93B
:10117000087004E003E001A900200870FFE7BB4805
:1011800000784007002806D5FFE7EF49088820309F
:10119000088080B204E0EC490888401C0880FFE722
:1011A00001A8007802B080BD440A0020103F000072
:1011B000800A002080B582B001A90870E24800884A
:1011C0004FF200010840009090B1FFE7009841F213
:1011D000000188420DD0FFE7009842F200018842EA
:1011E00008D0FFE7009843F20001884207D035E0BD
:1011F00035E034E001A8007800F08AF82FE0D2480A
:1012000000881F21084010281FDBFFE70199CE4806
:1012100002880F231A4082182C23D154008880079B
:1012200090B9FFE70198C84908770A461C322C2379
:10123000C8542C310198107108710198107208720D
:10124000019810730873FFE707E00198BE490A8808
:101250000F231A4089180877FFE700E0FFE7BE4830
:1012600000784007002806D5FFE7B74908882030F6
:10127000088080B204E0B4490888401C0880FFE779
:1012800002B080BD440A0020800A002082B0AE482F
:1012900001883F4801406846018000883D498842F6
:1012A0000ADBFFE7A84881696846008840183E4984
:1012B000405C01A9087027E06846008836498842EA
:1012C0000ADBFFE7A04841696846008840183549B5
:1012D000405C01A9087017E0684600882F498842E1
:1012E0000ADBFFE7984801696846008840182C49E6
:1012F000405C01A9087007E09348C0686946098806
:10130000405C01A90870FFE701A8007802B07047AF
:1013100082B001A908708C4801881D4801406846C8
:10132000018000881B49884209DBFFE70198864954
:101330008A696946098889181B4A885424E06846E6
:1013400000881549884209DBFFE701987E494A6910
:10135000694609888918134A885415E06846008848
:101360000E49884209DBFFE7019877490A69694617
:10137000098889180A4A885406E001987249C968A0
:101380006A4612888854FFE702B07047440A00207A
:10139000FF0F0000010C0000010800000104000024
:1013A00000FCFFFF00F8FFFF00F4FFFF80B584B0F2
:1013B000014603A8018000880190072851D80199AF
:1013C0008A0001A08018874600F00EB800F011B81E
:1013D00000F014B800F045B800F034B800F041B89F
:1013E00000F03FB800F038B85B48007802A90870F8
:1013F00038E05948407802A9087033E056498878A7
:1014000002AA107088787F22104088704F4900200F
:10141000087017480068152813DBFFE714480068B8
:1014200040F2051188420CDCFFE74B4800780006CB
:10143000002806D4FFE748490878FC2210400870CD
:10144000FFE70FE0994840F20013C15C4A1CC25408
:10145000405C02A9087005E0FFF73AFE02A9087097
:1014600000E0FFE702A8007804B080BD800A0020F9
:10147000840A002010B584B0024603A8028002AAA4
:1014800011700088019007285BD801998A0001A09B
:101490008018874600F00EB800F010B800F051B880
:1014A00000F010B800F014B800F01BB800F037B826
:1014B00000F042B802982849087043E00298264993
:1014C00048703FE00298794940F20012885439E0B0
:1014D0000298764940F200140A5D531C0B5588545B
:1014E00030E01A48007880B1FFE702A80078F028C1
:1014F00003DBFFE70020009003E002A800780090E3
:10150000FFE700981349087003E00298104908703B
:10151000FFE70E49087801225040087012E00A499E
:101520000888000202AA1278801808800749087803
:1015300001225040087005E002A80078FFF73AFE4B
:1015400000E0FFE704B010BD440A0020430A002079
:10155000410A0020420A0020800A0020704770479C
:1015600010B586B0089C05900491039202930598EB
:101570000499039A029BFEF76AFF03980190FFE724
:1015800001980299884215D8FFE705980090FFE777
:1015900000980499884208D8FFE7089800F086F977
:1015A000FFE70098401C0090F2E7FFE70198401C1D
:1015B0000190E5E706B010BD84B0014603A80170B4
:1015C000002102910078000900900F284CD8009962
:1015D0008A0001A08018874600F01EB800F01CB8F1
:1015E00000F042B800F040B800F03EB800F03CB85F
:1015F00000F019B800F017B800F020B800F01EB8DD
:1016000000F01CB800F01AB800F023B800F021B8C0
:1016100000F01FB800F01DB803A8007801022248AE
:101620004018029020E01F48016803A800780002DB
:10163000401846F20001401A029015E0184801686F
:1016400003A800780002401848F20001401A0290F6
:101650000AE01248016803A80078000240184CF222
:101660000001401A0290FFE700200190FFE7019877
:10167000FF280ADCFFE70298019A805C0B49885436
:10168000FFE70198401C0190F1E7E249086840F249
:101690000022801A086004B07047C046A40B0020E6
:1016A000A00B0020B4130020A80B0020880A002003
:1016B00080B584B002900298401E000E18B1FFE77A
:1016C0000120039011E00298401E094908600020A3
:1016D0000190C043032100F0F9F801980549086022
:1016E000054A072111600390FFE7039804B080BD0D
:1016F00014E000E018E000E010E000E080B500F049
:1017000003FF80BD80B582B01B49086801221043E9
:101710000860FFE7184800688007002801D4FFE749
:10172000F8E716490868164A104008600868154A24
:101730001040086010490868134A104008601349B7
:1017400008680F22904308601149086840F20312AC
:1017500090430860086803229207904308600D498F
:1017600000200190086002F0E1FA01990120C00612
:1017700001F09AFD02B080BD00100240041002404A
:101780000C00FF08FFFF007FFFFFF2FE2C1002405D
:10179000301002400810024080B588B007AA0092BD
:1017A000107006A8019001700920C0060490102155
:1017B000059101F045F80498022101F041F83A48FA
:1017C000029001F0D9F8009A01460298C9B2127845
:1017D0001202891801F0D7F804980421039101F04E
:1017E0002FF80399049801F033F8029801F0C4F837
:1017F000019A01460298C9B212781202891801F0C2
:10180000C2F80399049801F01BF80399049801F0B9
:101810001FF80498059901F01BF808B080BDC04678
:1018200080B588B007AA0092107006A801900170D8
:101830000920C00604901021059101F001F80498D8
:10184000022101F005F81848029001F095F8009A7D
:1018500001460298C9B212781202891801F093F871
:1018600004980421039100F0EBFF0399049800F021
:10187000EFFF029801F080F8019A01460298C9B280
:1018800012781202891801F07EF80399049800F08A
:10189000D7FF0399049800F0DBFF0498059900F046
:1018A000D7FF08B080BDC0460004004880B584B0B2
:1018B00003900398010A02A80170039A01A90A7013
:1018C00000780978FFF7ACFF04B080BD70B582B036
:1018D000024601A802700091007840B2002817D497
:1018E000FFE701A9087840B20322D3431840184A01
:1018F0008058097849B28C07E50EFF24AC40A0431C
:10190000009CA401E4B2AC402043194088501AE086
:1019100001A908780F24204008380322D343184037
:101920000A4A8058097849B28D07EE0EFF25B54066
:10193000A843009DAD01EDB2B540284321400839D0
:1019400019408850FFE702B070BDC0461CED00E0B2
:1019500000E400E080B582B04E480190008800F0BD
:10196000CDFE01460198E44A009211800088401C97
:1019700080B200F0C3FE009A019903021088C018DB
:1019800010800888401C08800888401C088002B02D
:1019900080BDC04680B582B03E480190008800F00E
:1019A000ADFE01460198D44A009211800088401C87
:1019B00080B200F0A3FE009A019903021088C018BB
:1019C00010800888401C08800888401C0880C8488F
:1019D00000780C214143C748405A042810D1FFE742
:1019E000C5480188080A0A4A12788918090A8842F3
:1019F00005D0FFE77D490868401C0860FFE7FFE766
:101A000003480278BC4908888018088002B080BD6D
:101A1000BD1300208C0B002080B582B0E3480190FC
:101A2000008800F06BFE01460198E34A00921180A5
:101A30000088401C80B200F061FE009A0199030208
:101A40001088C01810800888401C08800888401C36
:101A50000880D74800780C214143D648405A0428D2
:101A600010D1FFE7D4480188080A0B4A1278891878
:101A7000090A884205D0FFE7D0490868401C086081
:101A8000FFE7FFE704480278E549088880180880E6
:101A900002B080BD9E0B0020BE13002080B5DE4842
:101AA00000780C214143DD48401880688047DC48BD
:101AB000008800F023FED74A1070D5480078012135
:101AC000084048490860A4480078127880180968DE
:101AD00041184548016000687F2807DCFFE742485D
:101AE00000688021C943884206DCFFE7E2490878A4
:101AF00040221043087005E0DF490878BF221040FB
:101B00000870FFE794480078DC49097840183549A7
:101B100009684118344801600068FF2806DDFFE7C6
:101B2000D549087801221043087005E0D2490878A9
:101B3000FE2210400870FFE72B48006886490870B5
:101B4000CD4800780007002823D5FFE7CA49087868
:101B5000FE2210400870E24800780F2108400A2851
:101B600005DBFFE7DE490878801D0870FFE7DC48E9
:101B70000078F021084091280ADBFFE7D84908786F
:101B800060300870D7490878012210430870FFE7D9
:101B900004E0BB490868401C0860FFE7D0480078B3
:101BA00030B1FFE7CF490878FD221040087005E00A
:101BB000E2490878022210430870FFE7C84800781D
:101BC0000006002806D5FFE7DC490878802210438C
:101BD000087005E0D94908787F2210400870FFE7B7
:101BE00080BDC046AC130020B81300208C0B002031
:101BF00080B5D34800780C214143D2484018806812
:101C00008047D148008800F079FD0146E548017021
:101C10000278B348017811400170007830B1FFE7D5
:101C2000DF490878FD221040087005E0DC4908789B
:101C3000022210430870FFE7A94800780006002838
:101C400006D5FFE7D649087880221043087005E0E2
:101C5000D34908787F2210400870FFE780BDC04656
:101C600010B582B0D04800780C214143E6484018B6
:101C700080688047E5480090008800F03FFD0246FC
:101C80000098E04901910A70DD4B1A78FE24224049
:101C90000C78E40912191A700A7852000A70008848
:101CA000097801F031FC0198007830B1FFE7D449A0
:101CB0000878FD221040087005E0D149087802221A
:101CC00010430870FFE7CF4800780006002806D5CB
:101CD000FFE7CB49087880221043087005E0C84927
:101CE00008787F2210400870FFE702B010BDC046A0
:101CF0009C0B002008410008B0130020C04A117856
:101D0000FE20014076480378DB09C918117001787C
:101D100049000170007830B1FFE7B9490878FD2229
:101D20001040087005E0B649087802221043087098
:101D3000FFE76B4800780006002806D5FFE7E24978
:101D4000087880221043087005E0DF4908787F2278
:101D500010400870FFE770478A0B002080B582B002
:101D6000D9480078C00798B9FFE7B34800780C213C
:101D70004143B248401880688047B1480288D04942
:101D8000088880180880AF490868401C08600BE08C
:101D9000E6480190008800F0B1FC0199E44A107017
:101DA0000888401C0880FFE702B080BD9E0B002021
:101DB0009C0B002008410008B01300208C0B002071
:101DC00080B582B0D8480078C00798B1FFE7D948FD
:101DD00000780C214143D848401880688047D74894
:101DE0000288D249088880180880D5490868401CB4
:101DF00008600BE0E8480190008800F07FFC019942
:101E0000E64A10700888401C0880FFE702B080BDD9
:101E1000980B0020BC1300209C0B002008410008F8
:101E2000B013002080B582B0E74800788007002812
:101E300013D5FFE7DA4800780C214143D948401810
:101E400080688047D8480288D3490888801808806D
:101E5000D6490868401C08600BE0CF480190008814
:101E600000F04CFC0199CD4A10700888401C088095
:101E7000FFE702B080BDC046980B0020BC130020D5
:101E80008C0B002080B5C64800780C214143C54822
:101E9000401880688047C448008800F02FFC014645
:101EA000BE48017000780E490978084206D0FFE765
:101EB000CC490878FD221040087005E0C94908782F
:101EC000022210430870FFE7C64908783F221040FD
:101ED000B24A1278C0231A408018087080BDC046EC
:101EE0008A0B0020980B002080B582B0EA48007869
:101EF0000006002813D5FFE7E34800780C21414392
:101F0000E248401880688047E1480288A249088872
:101F100080180880A5490868401C08600BE09E48AE
:101F20000190008800F0EAFB0199DA4A10700888F5
:101F3000401C0880FFE702B080BDC046980B00201F
:101F40009C0B002008410008B013002080B582B02F
:101F5000D14800788007002813D4FFE7CA480078EA
:101F60000C214143C948401880688047C84802880E
:101F700089490888801808808C490868401C0860D6
:101F80000BE085480190008800F0B8FB0199EE4A0B
:101F900010700888401C0880FFE702B080BDC04672
:101FA000980B0020BC1300209C0B002080B582B051
:101FB000E64800780006002813D4FFE7DF480078E1
:101FC0000C214143DE48401880688047DD48028884
:101FD000714908888018088074490868401C0860A6
:101FE0000BE06D480190008800F088FB0199D64A0B
:101FF00010700888401C0880FFE702B080BDC04612
:10200000980B0020BC13002008410008B0130020EA
:1020100080B5F74800780C214143F64840188068A5
:102020008047F54802885C490888801808805F4925
:102030000868401C086080BD9C0B00200841000817
:10204000B01300208C0B002010B586B052490491CB
:102050000888401C08801B4C01942078421E227086
:1020600040F2001202928018497801F04DFA029A6B
:1020700004992078431E23708018097801F044FAEF
:10208000019B02991878421E1A704018EF4903917B
:10209000097801F039FA039908781422104308707E
:1020A0000A4800F02BFB0590094800F027FB049933
:1020B0000246059812028018088006B010BDC0467E
:1020C0009E0B0020A8130020980B0020FEFF0000AC
:1020D000FFFF000080B582B0DC4800784006002891
:1020E00013D4FFE7C24800780C214143C14840188F
:1020F00080688047C048028827490888801808807F
:102100002A490868401C08600BE0234801900088B9
:1021100000F0F4FA0199F34A10700888401C088016
:10212000FFE702B080BDC046980B00209E0B002048
:10213000BC1300209C0B002008410008B0130020B5
:102140008C0B002080B582B0E7480078400600285C
:1021500013D5FFE7E04800780C214143DF484018E1
:1021600080688047DE4802880B490888801808800C
:102170000E490868401C08600BE007480190008881
:1021800000F0BCFA0199D74A10700888401C0880FA
:10219000FFE702B080BDC0469E0B0020BC130020AC
:1021A0009C0B002008410008B01300208C0B00207D
:1021B000EF490878FE22104008707047EC49087813
:1021C000F722104008707047980B0020E849087803
:1021D000FB22104008707047E5490878BF22104084
:1021E00008707047980B002080B5BB4800780C2120
:1021F0004143BA48401880688047B948008800F0D9
:102200007DFAB8490870904800780978401A40F281
:1022100000114018FF2806DDFFE7EA49087801228F
:102220001043087005E0E7490878FE221040087066
:10223000FFE785480178AB480278891A40F200121E
:1022400089180170007830B1FFE7DE490878FD2277
:102250001040087005E0DB4908780222104308703E
:10226000FFE7A04800780006002806D5FFE7F449FC
:10227000087880221043087005E0F14908787F2231
:1022800010400870FFE780BD9C0B0020084100084B
:10229000B0130020BC130020980B002080B5E44848
:1022A00000780C214143E348401880688047E248A9
:1022B000008800F023FA8B490870AC480078097850
:1022C000401A40F200114018FF2806DDFFE7DC4904
:1022D000087801221043087005E0D9490878FE22E9
:1022E00010400870FFE7A14801787E480278891AFB
:1022F00040F2001289180170007830B1FFE7D04930
:102300000878FD221040087005E0F849087802229C
:1023100010430870FFE7734800780006002806D5D0
:10232000FFE7F249087880221043087005E0EF4982
:1023300008787F2210400870FFE780BD9C0B0020CA
:1023400008410008B0130020BC130020980B0020A7
:1023500080B5E84800780C214143E7484018806880
:102360008047B548008800F0C9F95E490870944874
:1023700000780978401A40F200114018FF2806DD65
:10238000FFE7DA49087801221043087005E0D749D1
:102390000878FE2210400870FFE78948017851480C
:1023A0000278891A40F2001289180170007830B161
:1023B000FFE7CE490878FD221040087005E0CB49C0
:1023C0000878022210430870FFE7464800780006AC
:1023D000002806D5FFE7C549087880221043087019
:1023E00005E0C24908787F2210400870FFE780BDF1
:1023F0009C0B002008410008B01300208F48017892
:10240000491E0170007830B1FFE7B8490878FD2215
:102410001040087005E0B5490878022210430870A2
:10242000FFE7864800780006002806D5FFE7AF4999
:10243000087880221043087005E0AC4908787F22B4
:1024400010400870FFE770478A0B0020980B0020AF
:1024500080B582B0A74800780C214143A6484018B7
:102460008068804774480090008800F047F9024671
:10247000009801A90A70019A521E0A700088097812
:1024800001F042F80098008800F038F9014615483C
:102490000170007830B1FFE794490878FD221040C0
:1024A000087005E091490878022210430870FFE7A0
:1024B0000C4800780006002806D5FFE78B4908780D
:1024C00080221043087005E0884908787F22104078
:1024D0000870FFE702B080BD9C0B00200841000897
:1024E000B0130020BC130020980B002081B0009096
:1024F00000980A490860FFE70848006808B1FFE74C
:10250000FAE701B07047C0460448006828B1FFE709
:1025100002490868401E0860FFE77047900B0020E2
:1025200012480178491E0170007830B1FFE76F4909
:102530000878FD221040087005E06C4908780222F6
:1025400010430870FFE7094800780006002806D508
:10255000FFE76649087880221043087005E0634968
:1025600008787F2210400870FFE77047BD130020F5
:10257000980B002012480178491E0170007830B194
:10258000FFE75A490878FD221040087005E05749D6
:102590000878022210430870FFE709480078000617
:1025A000002806D5FFE751490878802210430870BB
:1025B00005E04E4908787F2210400870FFE7704719
:1025C000BE130020980B002080B54A4800780C21EB
:1025D00041434948401880688047F448008800F02B
:1025E0008DF802461548017851400170007830B1ED
:1025F000FFE73E490878FD221040087005E03B499E
:102600000878022210430870FFE7FD4800780006B2
:10261000002806D5FFE7FB490878802210430870A0
:1026200005E0F84908787F2210400870FFE780BD78
:102630009C0B002008410008B01300208A0B0020EA
:10264000980B002080B586B00590264800780128B8
:1026500006D1FFE700F0E6FD22490020087011E0F6
:102660002148007801280CD1FFE7E64800784007B0
:10267000002806D4FFE700F07BFB1B490020087010
:10268000FFE7FFE7FFE7059819490968884221DD60
:10269000FFE7C5480190008800F030F8019A014634
:1026A000FB48029001701188491C118000780C21B0
:1026B00003914143F7480490401840688047029ACC
:1026C0000399049812785143425A094908688018BE
:1026D0000860D8E7059A06490868801A086006B0BD
:1026E00080BDC046400200202C020020980B002034
:1026F0008C0B00209C0B00200841000880B584B0A2
:10270000014602A8018000884EF2000108400190B5
:1027100050B3FFE7019842F2000188422CD0FFE756
:10272000019844F2000188422ED0FFE7019846F25A
:102730000001884254D0FFE7019848F20001884226
:102740004FD0FFE701984AF20001884249D0FFE7E5
:1027500001984CF2000188424CD0FFE701984EF2FC
:102760000001884246D04EE002A80188324801406C
:102770003248405C03904AE002A8008807210840E4
:10278000FEF714FE039042E002A800882549884223
:1027900001DCFFE7FFE702A800882349884201D156
:1027A000FFE7FFE702A800882049884201D1FFE740
:1027B000FFE702A800881E49884205D1FFE70020F4
:1027C000FDF76AFE039022E002A8008819498842BA
:1027D00005D1FFE70120FDF75FFE039017E012E04F
:1027E00011E00E48016802A8008840180C49405CBE
:1027F00003900CE00748016802A8008840180649C9
:10280000405C039003E002A840780390FFE7039840
:1028100004B080BDA40B00200040FFFFA00B0020EF
:102820000080FFFF1240000014400000154000002F
:102830001640000017400000FF070000A80B002012
:1028400082B00190009100980199886202B07047AF
:1028500082B00190009100980199886102B07047A0
:1028600087B0069005910492039306980068019042
:102870000698C068009002A900200880FFE702A81F
:1028800000880F282BD8FFE702A801880398C840CA
:10289000C007F0B1FFE702A80188490003221346F0
:1028A0008B40019999430191059B018849008B4018
:1028B000019919430191018849008A400099914387
:1028C00000910499008840008140009808430090DE
:1028D000FFE7FFE70298401C02A90880CFE70198B4
:1028E0000699086000980699C86007B0704710B54F
:1028F00086B0059004A80170039202930078012825
:1029000006D1FFE7029A059948681043486005E040
:10291000029A0599486890434860FFE705988068E7
:10292000009001A900200880FFE701A800880F2877
:102930001DD8FFE701A801880298C840C00780B1F0
:10294000FFE701A80188490003228A4000999143CA
:10295000009103990088400081400098084300904E
:10296000FFE7FFE70198401C01A90880DDE7009818
:102970000599886006B010BD81B00090009840694C
:1029800080B201B0704782B0019068460180008833
:102990000199486102B07047B54A1088411C118006
:1029A000B54908807047C0469E0B0020B013002038
:1029B0007047000012480178491C0170007830B15E
:1029C000FFE7EA490878FD221040087005E0E74972
:1029D0000878022210430870FFE7094800780006D3
:1029E000002806D5FFE7E1490878802210430870E7
:1029F00005E0DE4908787F2210400870FFE7704745
:102A00008A0B0020980B002080B582B085480078A2
:102A10000C214143844840188068804796480090C4
:102A20000088FFF76BFE0246009801A90A70019A20
:102A3000521C0A700088097800F066FD0098008832
:102A4000FFF75CFE01468B480170007830B1FFE76C
:102A5000E3490878FD221040087005E0E049087855
:102A6000022210430870FFE7824800780006002821
:102A700006D5FFE7DA49087880221043087005E0A0
:102A8000D74908787F2210400870FFE702B080BD68
:102A90009C0B00200841000880B584B0DA48019002
:102AA0000088FFF72BFE014601982A4A0292118006
:102AB0000088401C80B2FFF721FE014602980902FF
:102AC000954A1278891801800088FFF717FE0146A1
:102AD0000298E74A039211800088401C80B2FFF7F9
:102AE0000DFE0399020208888018088004B080BD9A
:102AF00080B584B0DC4803900088FFF7FFFD0146F5
:102B00000398144A019211800088401C80B2FFF79C
:102B1000F5FD014601980A020188891801800088A4
:102B2000FFF7ECFD01460198D14A0292118000881E
:102B3000401C80B2FFF7E2FD029A0399030210885D
:102B4000C01810800888401C08800888401C088035
:102B500004B080BD9A0B002080B584B0C2480190BB
:102B60000088FFF7CBFD019A7F4909784118414859
:102B7000029001701188491C11800078FFF7BEFD9A
:102B800001460298D44A039211800078401CFFF756
:102B9000B5FD0399020208888018088004B080BD42
:102BA00080B584B0B04801900088FFF7A7FD019A76
:102BB00001463048029001701188491C118000784C
:102BC000FFF79CFD01460298DF4A039211800078CE
:102BD000401CFFF793FD03990202088880180880C3
:102BE000D74800780C214143D648405A052810D1D7
:102BF000FFE7D5480188080A5B4A12788918090A54
:102C0000884205D0FFE730490868401C0860FFE7AC
:102C1000FFE7E9480278E74908888018088004B08F
:102C200080BDC0469C0B00200841000880B584B0E0
:102C30008D4801900088FFF761FD019A01460D481B
:102C4000029001701188491C11800078FFF756FD31
:102C500001460298D74A039211800078401CFFF782
:102C60004DFD0399020208888018088004B080BDD9
:102C70009E0B0020BC130020B013002010B584B0C0
:102C80000390029101926846037003990A4A116009
:102C900002990A4A11600199094A11600199007864
:102CA0008003401844F20001401A064908600649B2
:102CB0000020086004B010BD940B0020B413002065
:102CC000A00B0020A40B00208C0B00209F48017853
:102CD000491C0170007830B1FFE7E0490878FD2217
:102CE0001040087005E0DD490878022210430870A2
:102CF000FFE7964800780006002806D5FFE7D74989
:102D0000087880221043087005E0ED4908787F229A
:102D100010400870FFE77047BD130020A6480178F7
:102D2000491C0170007830B1FFE7E5490878FD22C1
:102D30001040087005E0E24908780222104308704C
:102D4000FFE79D4800780006002806D5FFE7DC492C
:102D5000087880221043087005E0D94908787F225E
:102D600010400870FFE77047BE130020980B00204A
:102D700010B584B03D4C00942078411E217040F283
:102D800000110191401838490391497800F0BCFBCB
:102D9000019A03992078431E23708018097800F067
:102DA000B3FB009B01991878421E1A704018C44961
:102DB0000291097800F0A8FB0299087804221043D8
:102DC00008700848FFF79AFC039908800648FFF747
:102DD00095FC0399020208881043088004B010BDD6
:102DE000980B0020FEFF0000FFFF000080B5974811
:102DF00000780C21414396484018806880479548E8
:102E000000881949088080BD9E0B002010B582B053
:102E1000154901910888401C0880144C2078421EF6
:102E2000227040F2001200928018497800F06CFB8A
:102E3000009A01992078431E23708018097800F0C9
:102E400063FB01990888401E0880804800780C21A7
:102E500041437F4840188068804701997D48008839
:102E6000088002B010BDC0469E0B0020A8130020B1
:102E7000B013002080B5754800780C214143744898
:102E800040188068804773480088FFF737FC014688
:102E90008C480170007830B1FFE789490878FD223D
:102EA0001040087005E08649087802221043087037
:102EB000FFE7844800780006002806D5FFE7F649BA
:102EC000087880221043087005E0F34908787F22D3
:102ED00010400870FFE780BDB013002080B55B484C
:102EE00000780C2141435A4840188068804759486F
:102EF0000088FFF703FC014614480170007830B1E8
:102F0000FFE7E5490878FD221040087005E0E24936
:102F10000878022210430870FFE70C48007800068A
:102F2000002806D5FFE7DC490878802210430870A6
:102F300005E0D94908787F2210400870FFE780BD7E
:102F40009C0B002008410008B0130020BD13002096
:102F500080B5F74800780C214143F6484018806856
:102F60008047F5480088FFF7C9FB01461248017009
:102F7000007830B1FFE7F1490878FD221040087071
:102F800005E0EE490878022210430870FFE70A487E
:102F900000780006002806D5FFE7F7490878802268
:102FA0001043087005E0F44908787F22104008704B
:102FB000FFE780BDB0130020BE130020B0B582B083
:102FC000DB4800780C214143DA484018806880478C
:102FD000D94800900088FFF791FB024600981E49EF
:102FE00001910A70E44B1A78FE2422400C780125E6
:102FF0002C4012191A700A7852080A700088097851
:1030000000F082FA0198007830B1FFE7DA490878D9
:10301000FD221040087005E0D749087802221043CD
:103020000870FFE70C4800780006002806D5FFE787
:10303000D149087880221043087005E0CE4908780D
:103040007F2210400870FFE702B0B0BD9C0B00204B
:1030500008410008B0130020BC130020980B00208A
:1030600010B5ED4A1178FE200140EA4803780124AA
:103070002340C9181170017849080170007830B1F7
:10308000FFE7EE490878FD221040087005E0EB49A3
:103090000878022210430870FFE7DE480078000637
:1030A000002806D5FFE7E54908788022104308701C
:1030B00005E0E24908787F2210400870FFE710BD64
:1030C000980B00208A0B002080B58EB000200A905B
:1030D0000D9000F02FFE2A4800F088FA294800F0F1
:1030E00085FA0A9A0920C0060690012108913E231C
:1030F0000793FFF7B5FB0698079B0A9903220B92EB
:10310000FFF7F5FB08990A9A1F4809904FF60073DC
:103110000C93FFF7A5FB09980A990B9A0C9BFFF7F4
:10312000E6FBFDF765F800F031F8FFE74FF6000029
:103130000090F02102910022039240F24013049388
:103140001046FEF70DFA64200590FFF7CFF90299BB
:10315000039A049B40F2E07000901046FEF700FADC
:103160000598FFF7C3F90299039A049B1F2000906A
:103170001046FEF7F5F90598FFF7B8F9D6E7C0460F
:1031800011050000120500000004004880B582B05F
:1031900022480190019822490322FDF705F808B161
:1031A000FFE739E001988079C00708B9FFE700E040
:1031B000FFE7019880798007002801D4FFE700E04D
:1031C000FFE7019880794007002801D4FFE700E07D
:1031D000FFE7019880790007002801D4FFE700E0AD
:1031E000FFE7FFE7019803790C4A103200920021B3
:1031F0000846FFF743FD00F039FA009801990A7973
:1032000092038018897901221140FDF70DFFFDF727
:10321000B5FAFDF763FEFFE702B080BD084D000878
:103220001CED000810B584B0B54C00942078411E08
:10323000217040F20011019140181649039149781C
:1032400000F062F9019A03992078431E23708018D8
:10325000097800F059F9009B01991878421E1A70FC
:103260004018A8490291097800F04EF902990878AF
:103270000422104308700948FFF740FA03990880B8
:103280000748FFF73BFA03990202088810430880B9
:1032900004B010BD9E0B0020980B0020FAFF000028
:1032A000FBFF00007047000082B001900091019880
:1032B0000099034A114008430249086002B0704770
:1032C00080FFFF1F08ED00E080B5194800780C2151
:1032D00041431848401880688047E2480088FFF75B
:1032E0000DFA02464B48017811430170007830B165
:1032F000FFE784490878FD221040087005E0F04996
:103300000878022210430870FFE7F04800780006B2
:10331000002806D5FFE7EA490878802210430870A4
:1033200005E0E74908787F2210400870FFE780BD7C
:103330009C0B002008410008B0130020980B0020CF
:1033400080B5E34A1078411E117040F20011401818
:10335000DE49097800F0D8F880BDC04680B5DC4A67
:103360001078411E117040F200114018D4490978BC
:1033700000F0CAF880BDC046980B002080B5D44A42
:103380001078411E117040F200114018CE490978A2
:1033900000F0BAF880BDC04680B5CD4A1078411E15
:1033A000117040F200114018C649097800F0ACF8DD
:1033B00080BDC04680B5C6490878401C0870C0B2C0
:1033C00040F200114018FFF799F90146BF4801701B
:1033D000007830B1FFE7EC490878FD221040087012
:1033E00005E0E9490878022210430870FFE7B74872
:1033F00000780006002806D5FFE7E3490878802218
:103400001043087005E0E04908787F2210400870FA
:10341000FFE780BD8A0B0020980B002080B5AC49E7
:103420000878401C0870C0B240F200114018FFF745
:1034300065F920210843F149087080BD980B0020F0
:1034400080B5A3490878401C0870C0B240F2001152
:103450004018FFF753F901469B480170007830B1DE
:10346000FFE7E6490878FD221040087005E0E349CF
:103470000878022210430870FFE79348007800069E
:10348000002806D5FFE7DD49087880221043087040
:1034900005E0DA4908787F2210400870FFE780BD18
:1034A00080B58B490878401C0870C0B240F200110A
:1034B0004018FFF723F9014682480170007830B1C7
:1034C000FFE7CE490878FD221040087005E0CB499F
:1034D0000878022210430870FFE77A480078000657
:1034E000002806D5FFE7F3490878802210430870CA
:1034F00005E0F04908787F2210400870FFE780BDA2
:10350000A8130020980B002080B584B0024603A8C1
:10351000028002AA117000884EF20001084001905A
:1035200050B3FFE7019842F2000188422CD0FFE738
:10353000019844F2000188422FD0FFE7019846F23B
:103540000001884245D0FFE7019848F20001884217
:1035500040D0FFE701984AF2000188423AD0FFE7E5
:1035600001984CF20001884234D0FFE701984EF2F6
:10357000000188422ED02EE0029803A90A8819493A
:103580000A401949885426E003A80088072108400A
:1035900002A90978FDF76EFF1DE003A800880F4916
:1035A000884205D1FFE702A80078FEF705F8FFE79B
:1035B00003A800880A4988420AD1FFE702A80078D8
:1035C000C00718B1FFE7FDF7E5F800E0FFE7FFE708
:1035D00001E000E0FFE704B080BDC04614400000F9
:1035E00016400000FF070000A80B002081B0014634
:1035F0006846018000881F220146114001238B404C
:103600008109034A88581843885001B07047C04662
:103610000010024080B582B0E54801900088FFF7B5
:103620006DF8019A0146A64801801188491C118055
:1036300000880006002807D5FFE7A149088840F266
:103640000012801A0880FFE79D484078EC494978CD
:10365000884205D0FFE704490868401C0860FFE77E
:1036600002B080BDB01300208C0B002080B582B06A
:10367000CE49002001900870124A1070124A107052
:10368000B14A10700878202210430870DB49FF20EF
:1036900008701048FFF732F8D949009108800E48A9
:1036A000FFF72CF8009A014601980B021188194384
:1036B00011800A4908700A49087002B080BDC046EE
:1036C000980B0020BE130020BD1300208A0B0020A1
:1036D000A8130020FCFF0000FDFF000040020020B6
:1036E0002C020020B0B584B0B04C207801210840F5
:1036F000944901910860704800780C2141436F485B
:103700004018806880476E4802900088FEF7F6FFF8
:10371000019A034602986B4903910B702378FE25AA
:103720002B400D78ED095B1923700B785B000B7053
:1037300013680A781A430A7000880978FFF7E4FED4
:103740000398007830B1FFE798490878FD221040CF
:10375000087005E095490878022210430870FFE7D9
:10376000584800780006002806D5FFE78F490878FA
:1037700080221043087005E08C4908787F221040B1
:103780000870FFE704B0B0BD980B002010B5F24BF5
:10379000187801210840F14908601A78FE2002409B
:1037A000EF480478E40912191A7002785200027086
:1037B0000A68017811430170007830B1FFE7F449DD
:1037C0000878FD221040087005E0F14908780222CF
:1037D00010430870FFE7E24800780006002806D58D
:1037E000FFE7EB49087880221043087005E0E849BC
:1037F00008787F2210400870FFE710BD980B00206A
:10380000B0B584B0E2480290007801252840D34941
:1038100003910860F04800780C214143EF484018BC
:1038200080688047EE480088FEF768FF029B0146EB
:103830000398C84A11701978FE24214014782C404E
:1038400009191970117849081170006830B1FFE743
:10385000C0490878802210430870FFE7E9480088D3
:10386000BC4901910978FFF74FFE0198007830B10B
:10387000FFE7C7490878FD221040087005E0C449F9
:103880000878022210430870FFE7B248007800066B
:10389000002806D5FFE7BE4908788022104308704B
:1038A00005E0BB4908787F2210400870FFE704B0AC
:1038B000B0BDC046980B00209C0B002008410008BA
:1038C000B0130020BC130020B0B5B14B197801250E
:1038D0002940A24801601978FE221140B54A1478A7
:1038E0002C4009191970117849081170006830B11D
:1038F000FFE7B0490878802210430870FFE7AD4821
:10390000007830B1FFE7A2490878FD221040087026
:1039100005E09F490878022210430870FFE7A54898
:1039200000780006002806D5FFE79949087880222C
:103930001043087005E0964908787F22104008700F
:10394000FFE7B0BDAC1300208A0B002010B584B097
:103950002A4901910878401C0870C0B240F2001159
:1039600002914018FEF7CAFE019A0299884B18701E
:1039700018782024204318701078401C1070C0B2B2
:103980004018FEF7BBFE019A02991D4B0393188065
:103990001078401C1070C0B24018FEF7AFFE0399BB
:1039A000020208881043088004B010BD980B002064
:1039B0009E0B002080B584B0104901910878401C0E
:1039C0000870C0B240F2001102914018FEF796FE56
:1039D000019A02990A4B039318801078401C1070CA
:1039E000C0B24018FEF78AFE03990202088810430D
:1039F00008800888401C088004B080BDA8130020FF
:103A00009E0B002080B5884800780C2141438748F0
:103A100040188068804786480088FEF76FFEC043E4
:103A20004C4A1070E1480078012108404B49086079
:103A3000DD48007812788018096809014118494862
:103A4000016000687F2807DCFFE7464800688021A6
:103A5000C943884206DCFFE7EA4908784022104360
:103A6000087005E0E7490878BF2210400870FFE7BA
:103A7000E248007837490978401838490968411800
:103A8000384801600068FF2806DDFFE7DD49087857
:103A900001221043087005E0DA490878FE22104040
:103AA0000870FFE72F480068D4490870D5480078AF
:103AB0000007002826D5FFE7EB480178663901703A
:103AC000EA4A1178FE231940117000780F2108404E
:103AD0000A2805DBFFE7E4490878801D0870FFE746
:103AE000E1480078F021084091280ADBFFE7DE4931
:103AF000087860300870DD490878012210430870AA
:103B0000FFE704E018490868401C0860FFE7D64852
:103B1000007830B1FFE7D5490878FD2210400870E1
:103B200005E0EF490878022210430870FFE7EB48F0
:103B300000780006002806D5FFE7E94908788022CA
:103B40001043087005E0E64908787F2210400870AD
:103B5000FFE780BDBC130020980B0020AC130020B1
:103B60008A0B0020B81300208C0B0020DC49087859
:103B70000122104308707047ED490878082210436D
:103B800008707047EA4908780422104308707047AB
:103B9000980B002080B5CE4800780C214143CD48D9
:103BA000401880688047CC480088CC490978FFF7E6
:103BB000ABFC80BD8A0B002080B5C54800780C2185
:103BC0004143C448401880688047C3480088EF4993
:103BD0000978FFF799FC80BD9C0B00200841000884
:103BE000B013002080B5BA4800780C214143B94891
:103BF000401880688047B848008881490978FFF7F5
:103C000083FC80BDB013002080B5B14800780C2142
:103C10004143B048401880688047AF480088002181
:103C2000FFF772FC80BDC0469C0B002008410008D5
:103C3000B013002010B584B00020039002903549E5
:103C400008680122120410430860FFE70398401C33
:103C50000390304800680121490408400290FFE7C2
:103C600002990020019039B9FFE703982A49401AC8
:103C7000411E88410190FFE70198C0070028E5D167
:103C8000FFE7244800688003002802D4FFE7FFE72D
:103C9000FEE7224908680122104306239843086082
:103CA0001F4900910868086008680860086840F2C9
:103CB0000043184308601B4B18680F24A04318608A
:103CC0000868194B18400860086819231B0418433A
:103CD000086010490868120610430860FFE70D48A5
:103CE00000688001002801D4FFE7F8E70C49086864
:103CF0000322904308600868022210430860FFE72F
:103D0000074800680C210840082801D0FFE7F7E7C2
:103D100004B010BD00100240FFFF00000020024070
:103D2000041002402C100240FFFF007F80B5FFF717
:103D300081FF80BD80B50848006840F2E831B0FBE3
:103D4000F1F0FDF7B5FC10B1FFE7FFE7FEE700215A
:103D5000C843FDF7BBFD80BD04000020A0480178EA
:103D6000B3480170007830B1FFE79E490878FD2222
:103D70001040087005E09B49087802221043087043
:103D8000FFE7AB4800780006002806D5FFE7954915
:103D9000087880221043087005E0924908787F2255
:103DA00010400870FFE770478A0B0020980B002036
:103DB0008B480178AA480170007830B1FFE7894943
:103DC0000878FD221040087005E086490878022234
:103DD00010430870FFE7A24800780006002806D5C7
:103DE000FFE78049087880221043087005E07D498C
:103DF00008787F2210400870FFE770478A0B002088
:103E0000BE130020980B002080B582B030480078A7
:103E10000C2141432F48401880688047914800900A
:103E20000088FEF76BFC0246009801A90A706C4AF4
:103E30001378019A9A430A7000880978FFF764FBA7
:103E400000980088FEF75AFC30B1FFE76549087812
:103E5000FD221040087005E06249087802221043F4
:103E60000870FFE702B080BD8A0B0020980B00208D
:103E700080B582B0164800780C214143154840189F
:103E800080688047774800900088FEF737FC02463C
:103E9000009801A90A70524A1378019A1A430A70CD
:103EA00000880978FFF730FB00980088FEF726FCB1
:103EB00030B1FFE74B490878FD221040087005E05B
:103EC00048490878022210430870FFE702B080BD1D
:103ED0009C0B002008410008B01300208A0B002032
:103EE000980B00202A48017851480170007830B1C1
:103EF000FFE73C490878FD221040087005E0394989
:103F00000878022210430870FFE74948007800064D
:103F1000002806D5FFE7334908788022104308704F
:103F200005E0304908787F2210400870FFE77047AD
:103F3000980B00203E48017829480170007830B184
:103F4000FFE728490878FD221040087005E0254960
:103F50000878022210430870FFE721480078000625
:103F6000002806D5FFE71F49087880221043087013
:103F700005E01C4908787F2210400870FFE7704771
:103F80002B480078024908707047C046BD130020D6
:103F9000A81300203248017811480170007830B130
:103FA000FFE710490878FD221040087005E00D4930
:103FB0000878022210430870FFE7094800780006DD
:103FC000002806D5FFE707490878802210430870CB
:103FD00005E0044908787F2210400870FFE7704729
:103FE0008A0B0020980B002080B582B01B480190FE
:103FF0000088FEF783FB01991A4A10800888401C4C
:10400000088002B080BDC04680B582B013480190E0
:104010000088FEF773FB019A054909784018114999
:1040200008801088401C10800878088002B080BD8D
:10403000BD13002080B582B0084801900088FEF7CB
:104040005DFB019A064909784018064908801088E6
:10405000401C10800878088002B080BD9E0B0020B4
:10406000BE130020B013002002E008C8121F08C1D0
:10407000002AFAD170477047002001E001C1121FE9
:10408000002AFBD17047AE73D120150013400E8873
:1040900002A800A04078604120028002E201EB19F2
:1040A000000000000000F7BD9D03DD211E8017B851
:1040B0000BE040D961CA808BA0044005870411043D
:1040C000000000000000FFFFFF3DBF5C5FA4DFF3C6
:1040D000B6FBACFBC7FCE7F58286E94ED35F5B0716
:1040E000000000000000FFFF3FAFBFC65FD63FFEED
:1040F0003BFEF6FDD5FE34FFF4E797AFF9B7FE9F20
:104100000000000000000000070000004920000837
:10411000B129000806000000C9320008592B000828
:1041200002000000A5320008B129000802000000CA
:10413000A5320008B129000803000000713E000804
:10414000E93F000803000000C9320008E93F000809
:1041500005000000611C0008E93F000802000000A3
:10416000A5320008B1290008030000005D330008F3
:10417000B129000803000000C9320008992900088D
:1041800002000000FD1C0008B12900080200000028
:10419000C9320008B129000804000000713E00087F
:1041A0005519000804000000C9320008551900081C
:1041B00006000000611C00085519000802000000FC
:1041C000A5320008B129000802000000AD1F000858
:1041D0001536000805000000C9320008A12B0008B0
:1041E00003000000C93200082D2C00080200000066
:1041F000A5320008B129000803000000093E0008AC
:10420000E93F000804000000C93200080940000826
:1042100006000000611C00080940000802000000C0
:10422000A5320008B129000802000000B1210008F1
:10423000B129000804000000C9320008191A00085A
:1042400002000000B5290008B129000802000000A2
:10425000A5320008B129000804000000093E00084A
:104260005519000804000000C9320008951900081B
:1042700007000000611C00089519000802000000FA
:10428000A5320008B1290008060000000D2E000824
:104290005519000806000000F11B0008592B000802
:1042A00002000000A5320008B12900080200000049
:1042B000A5320008B129000803000000851E00088F
:1042C000E93F000803000000F11B0008E93F000877
:1042D00005000000E5360008E93F00080200000084
:1042E000A5320008B1290008040000001D340008B0
:1042F000B129000803000000F11B000899290008FB
:10430000020000008D370008B129000802000000FB
:10431000A5320008B129000804000000851E00082D
:104320005519000804000000F11B00085519000889
:1043300006000000E53600085519000802000000DC
:10434000A5320008B129000802000000E91E00089B
:104350001536000805000000F11B0008A12B00081D
:1043600003000000F11B00082D2C000802000000D3
:10437000A5320008B129000804000000851E0008CD
:104380000940000804000000F11B00080940000873
:1043900006000000E53600080940000802000000A1
:1043A000A5320008B1290008020000006D3B00089A
:1043B000B129000804000000F11B0008191A0008C8
:1043C00002000000FD230008B129000802000000DF
:1043D000A5320008B129000804000000851E00086D
:1043E0009519000804000000F11B00089519000849
:1043F00007000000E53600089519000802000000DB
:10440000A5320008B1290008060000004D39000857
:10441000B129000806000000C9250008592B000832
:1044200002000000A5320008B129000802000000C7
:10443000A5320008B129000802000000A5320008DA
:10444000B129000803000000C9250008E93F000861
:1044500005000000BD2F0008E93F00080200000031
:10446000A5320008B129000803000000413300080C
:10447000B129000803000000C92500089929000897
:104480000200000061300008B129000802000000AD
:10449000A5320008B129000803000000ED2D000836
:1044A0005519000804000000C92500085519000826
:1044B00006000000BD2F000855190008020000008A
:1044C000A5320008B129000802000000D52000082C
:1044D0001536000805000000C9250008A12B0008BA
:1044E00003000000C92500082D2C00080200000070
:1044F000A5320008B129000802000000A53200081A
:10450000B129000804000000C9250008094000087E
:1045100006000000BD2F000809400008020000004E
:10452000A5320008B129000802000000CD210008D2
:10453000B129000804000000C9250008191A000864
:104540000300000099330008B129000802000000B0
:10455000A5320008B129000802000000A5320008B9
:10456000B129000804000000C925000895190008B9
:1045700007000000BD2F0008951900080200000088
:10458000A5320008B129000806000000B53900086E
:10459000B1290008060000009D1A0008592B0008E8
:1045A00002000000A5320008B12900080200000046
:1045B000A5320008B129000803000000093C0008EA
:1045C000E93F0008030000009D1A0008E93F0008C9
:1045D0000500000001380008E93F00080200000063
:1045E000A5320008B129000804000000B533000816
:1045F000B1290008030000009D1A0008992900084D
:1046000002000000C9380008B129000802000000BB
:10461000A5320008B129000805000000ED2D0008B2
:10462000F12A0008040000009D1A0008551900082E
:1046300006000000013800085519000802000000BB
:10464000A5320008B1290008020000004521000839
:10465000B1290008050000009D1A0008A12B0008E0
:10466000030000009D1A00082D2C00080200000025
:10467000A5320008B129000804000000093C000828
:1046800009400008040000009D1A000809400008C5
:104690000600000001380008094000080200000080
:1046A000A5320008B129000802000000853B00087F
:1046B000B1290008040000009D1A0008191A00081A
:1046C00004000000A1340008B12900080200000025
:1046D000A5320008B129000806000000ED2D0008F1
:1046E000992A0008040000009D1A00089519000886
:1046F00007000000013800089519000802000000BA
:10470000A5320008B12900080200000011200008AD
:104710001536000806000000953B0008592B0008DC
:1047200002000000A5320008B129000802000000C4
:10473000A5320008B129000802000000E53B00088E
:10474000E93F000802000000953B0008E93F00082F
:1047500002000000B93B0008E93F00080200000029
:10476000A5320008B12900080200000075250008E4
:10477000B129000802000000851E000899290008E0
:1047800002000000353F0008B129000802000000C7
:10479000A5320008B129000804000000E53B00082C
:1047A0005519000804000000953B00085519000841
:1047B00004000000B93B0008551900080200000081
:1047C000A5320008B1290008020000005D1D0008A4
:1047D0001536000806000000953B0008A12B0008D4
:1047E00003000000953B00082D2C0008020000008B
:1047F000A5320008B129000804000000E53B0008CC
:104800000940000804000000953B0008094000082A
:1048100004000000B93B0008354000080200000019
:10482000A5320008B129000802000000953F0008E9
:10483000B129000805000000953B0008191A00087E
:1048400002000000813F0008B129000802000000BA
:10485000A5320008B129000804000000093C000846
:104860005519000805000000953B0008951900083F
:1048700005000000093C000895190008020000002E
:10488000A5320008B129000803000000512F0008DC
:104890009929000806000000752E0008592B000811
:1048A00003000000DD2E0008992900080200000026
:1048B000A5320008B129000803000000512F0008AC
:1048C000E93F000803000000752E0008E93F0008DA
:1048D00003000000DD2E0008E93F00080200000090
:1048E000A5320008B129000802000000B13D00080F
:1048F000B129000803000000752E0008992900085E
:10490000020000005D3D0008B1290008020000001F
:10491000A5320008B129000804000000512F00084A
:104920005519000804000000752E000855190008EC
:1049300004000000DD2E00085519000802000000E8
:10494000A5320008B129000802000000C11D0008BE
:104950001536000805000000752E0008A12B000880
:1049600003000000752E00082D2C00080200000036
:10497000A5320008B129000804000000512F0008EA
:104980000940000804000000752E000809400008D6
:1049900004000000DD2E0008354000080200000081
:1049A000A5320008B129000802000000D921000842
:1049B000B129000804000000752E0008191A00082B
:1049C00002000000E53E0008B129000802000000D6
:1049D000A5320008B129000804000000512F00088A
:1049E0009519000804000000752E000895190008AC
:1049F00004000000DD2E0008191A00080200000063
:104A0000A5320008B1290008030000005123000866
:104A10009929000806000000E9210008592B000828
:104A200002000000A5320008B129000802000000C1
:104A3000A5320008B1290008030000005123000836
:104A4000E93F000803000000E9210008E93F0008F1
:104A50000500000051240008E93F000802000000A2
:104A6000A5320008B1290008020000001D2D000831
:104A7000B129000803000000E92100089929000875
:104A80000200000021250008B129000802000000F2
:104A9000A5320008B12900080400000051230008D5
:104AA0005519000804000000E92100085519000804
:104AB00006000000512400085519000802000000FB
:104AC000A5320008B1290008020000004D1F0008AF
:104AD0001536000805000000E9210008A12B000898
:104AE00003000000E92100082D2C0008020000004E
:104AF000A5320008B129000802000000A532000814
:104B0000B129000804000000E9210008094000085C
:104B100006000000512400080940000802000000BF
:104B2000A5320008B129000802000000BD210008DC
:104B3000B129000804000000E9210008191A000842
:104B4000030000007D330008B129000802000000C6
:104B5000A5320008B129000802000000A5320008B3
:104B6000B129000804000000E92100089519000897
:104B700007000000512400089519000802000000F9
:104B8000A5320008B1290008030000009D2200089A
:104B90009929000806000000053A0008592B000872
:104BA00002000000A5320008B12900080200000040
:104BB000A5320008B1290008030000009D2200086A
:104BC000E93F000803000000053A0008E93F00083B
:104BD00005000000092A0008E93F00080200000063
:104BE000A5320008B129000802000000CD2C000801
:104BF000B129000803000000053A000899290008BF
:104C000002000000A5320008B129000802000000DF
:104C1000A5320008B1290008040000009D22000808
:104C20005519000804000000053A0008551900084D
:104C300006000000092A00085519000802000000BB
:104C4000A5320008B129000802000000251E000856
:104C50001536000805000000053A0008A12B0008E1
:104C600003000000053A00082D2C00080200000097
:104C7000A5320008B129000802000000A532000892
:104C8000B129000804000000053A000809400008A6
:104C900006000000092A0008094000080200000080
:104CA000A5320008B129000802000000793B000885
:104CB000B129000804000000053A0008191A00088C
:104CC0000400000041340008B1290008020000007F
:104CD000A5320008B129000802000000A532000832
:104CE000B129000804000000053A000895190008E1
:104CF00007000000092A00089519000802000000BA
:104D0000A5320008B12900084E45531A02010100DE
:104D1000000000000000000078D8A9108D0020A23B
:104D2000FF9AAD022010FBAD022010FBA0FEA205F1
:104D3000BDD707C90AB00CCA10F6ADFF07C9A5D088
:104D400002A0D620CC908D11408D7007A9A58DFFB3
:104D5000078DA707A90F8D1540A9068D01202020DA
:104D60008220198EEE7407AD7807098020ED8E4CF5
:104D7000578001A4C8EC100041414C343C445468B5
:104D80007CA8BFDEEF038C8C8C8D0303038D8D8D8F
:104D90008D8D8D8D8D8D8D8D0040AD7807297F8D0A
:104DA0007807297E8D0020AD790729E6AC7407D0FD
:104DB00005AD7907091E8D790729E78D0120AE021F
:104DC00020A90020E68E8D0320A9028D1440AE7329
:104DD00007BD5A808500BD6D80850120DD8EA00055
:104DE000AE7307E006D001C8BE8080A9009D000315
:104DF0009D01038D7307AD79078D012020D1F2202D
:104E00005C8E20828120978FAD76074AB025AD4712
:104E100007F005CE4707D019A214CE7F071007A9C7
:104E2000118D7F07A223BD8007F003DE8007CA1023
:104E3000F5E609A200A007ADA70729028500ADA8E5
:104E4000072902450018F001387EA707E888D0F945
:104E5000AD2207F01FAD02202940D0F9AD76074AF8
:104E6000B00620238220C681AD02202940F0F9A09F
:104E70001488D0FDAD3F078D0520AD40078D05207E
:104E8000AD7807488D0020AD76074AB00320128226
:104E9000AD02206809808D002040AD7007C902F086
:104EA0000BC901D038AD7207C903D031AD7707F017
:104EB00004CE770760ADFC062910F019AD760729FE
:104EC00080D01AA92B8D7707AD7607A8C884FA4938
:104ED000010980D005AD7607297F8D760760AC4E3D
:104EE00007A9288500A20EBDE406C500900FACE01E
:104EF000061879E10690031865009DE406CA10E7DC
:104F0000AEE006E8E003D002A2008EE006A208A010
:104F100002B9E9069DF1061869089DF206186908AC
:104F20009DF306CACACA8810E860AD700720048ED7
:104F30003182DCAE8B831892A0002CA004A9F899D2
:104F40000002C8C8C8C8D0F760AD720720048ECF71
:104F50008F678561904582042073010000A000AD39
:104F6000FC060DFD06C910F004C990D0034CD88290
:104F7000C920F01AAEA207D00B8D8007206B83B03A
:104F8000604CC082AEFC07F04AC940D046C8ADA212
:104F900007F04EA9188DA207AD8007D036A9108D55
:104FA0008007C001F00EAD7A0749018D7A072025F0
:104FB000834CBB82AE6B07E88A29078D6B07200EF6
:104FC00083BD3F829D0003E8E00630F5AC5F07C873
:104FD0008C0403A9008DFC0620EAAEA50EC906D0FC
:104FE00044A9008D70078D72078D2207EE7407604B
:104FF000ACA207F0EC0A9006ADFD07200E8320035B
:105000009CEE5D07EE6407EE5707EE7007ADFC07F8
:105010008D6A07A9008D72078DA207A217A9009DAE
:10502000DD07CA10FA608D5F078D6607A2008E60EB
:10503000078E67076007224983CE242400A007B9A2
:105040001D839900038810F7AD7A07F00AA9248D13
:105050000403A9CE8D0603600180028141800142D4
:10506000C2028041C141C101C1010280009B1018F0
:10507000052C2024155A1020283020108020303094
:1050800001FF00AE1707AD1807D00DE8EE1707387F
:10509000BD54838D1807F00ABD3F838DFC06CE18E2
:1050A00007186020A083AD7207F007A200860820D1
:1050B0004DC02031F14CF0EEAD720720048EB4CF1C
:1050C000B083BD83F6836184AE1B07E88634A908EC
:1050D00085FC4C4E87A0008435A56DC534D006A54F
:1050E00086C960B003E635C89820E6B0AD1A07C59A
:1050F00034F016AD68071869808D6807A90169004A
:10510000A820C4AF206FAFE635A535F06860AD4983
:1051100007D048AD1907F018C909B03FAC5F07C008
:1051200007D009C9039034E9014C1884C902902BB7
:10513000A8D008AD5307F014C8D011C8AD5F07C997
:1051400007F00988C004B026C003B00FC003D00424
:10515000A90485FC9818690C8D7307AD4907186977
:10516000048D4907AD190769008D1907C907900813
:10517000A9068DA107EE720760ADA107D020AC5F34
:1051800007C007B01AA9008D60078D5C078D7207F4
:10519000EE5F0720039CEE5707A9018D700760ADF5
:1051A000FC060DFD062940F00DA9018DFC07A9FFA5
:1051B0008D5A0720489260FFFFF6FBF7FBF8FBF9DA
:1051C000FBFAFBF650F750F850F950FA50FDFEFF8D
:1051D0004142444548313234353800BD1001F0BEFB
:1051E000C90B9005A90B9D1001A8BD2C01D0049DF1
:1051F000100160DE2C01C92BD01EC00BD007EE5A67
:1052000007A94085FEB9B7844A4A4A4AAAB9B78471
:10521000290F9D3401202CBCBCE506B516C912F03F
:1052200022C90DF01EC905F012C90AF016C90BF00B
:1052300012C909B006B51EC902B008AEEE03BCEC37
:1052400006A608BD1E01C9189005E9019D1E01BDF5
:105250001E01E90820C8E5BD170199030218690875
:10526000990702A902990202990602BD10010AAA31
:10527000BD9F84990102BDA084990502A60860AD76
:105280003C0720048E8B859B8552865A8693869D8B
:1052900088A8869D88E686BF85E3854386FF86329B
:1052A00087498720208220198EAD7007F032A20333
:1052B0004CC585AD440748AD560748A9008D560733
:1052C000A9028D440720F185688D5607688D440733
:1052D0004C458701020304AC4E07BEBB858E7307A5
:1052E0004C458700090A0422220F0F0F220F0F22BC
:1052F0001627182230271922372716AC4407F00644
:10530000B9C7858D7307EE3C07AE0003A000AD530F
:1053100007F002A004AD5607C902D002A008A903F5
:105320008500B9D7859D0403C8E8C60010F4AE0017
:1053300003AC4407D003AC4E07B9CF859D0403A945
:105340003F9D0103A9109D0203A9049D0303A90029
:105350009D08038A1869078D000360AD3307C901F2
:10536000D005A90B8D73074C4587A9002008884CF0
:1053700045872035BCAE0003A9209D0103A9739D7C
:105380000203A9039D0303AC5F07C8989D0403A90A
:10539000289D0503AC5C07C8989D0603A9009D07DE
:1053A000038A1869068D00034C4587AD5907F00A3A
:1053B000A9008D5907A9024CC786EE3C074C4587CA
:1053C000AD7007F033C903F022AD5207D02AAC4EBE
:1053D00007C003F005AD6907D01E20ABEFA901207F
:1053E000088820A588A9008D740760A9128DA007E0
:1053F000A9032008884C4E87A9088D3C0760EE74ED
:105400000720B092AD1F07D0F8CE1E071003EE3C68
:1054100007A9068D730760AD7007D04AA91E8D06D7
:1054200020A9C08D0620A9038501A0008400AD0736
:1054300020AD07209100C8D002E601A501C904D023
:10544000F0C03A90ECA9054C4C86AD7007D017A27D
:10545000009D00039D0004CAD0F7202583EE3C0781
:1054600060A9FA203BBCEE720760204305160A1BB8
:10547000121820520B20181B150D24241D12160E75
:105480002068050024242E2923C07FAA23C201EA14
:10549000FF21CD0724242924242424214B0920186A
:1054A0001B150D24242824220C472423DC01BAFFD9
:1054B00021CD05160A1B1218220C071D12160E24E8
:1054C0001E19FF21CD05160A1B1218220B09100AFE
:1054D000160E24181F0E1BFF258415200E150C1800
:1054E000160E241D1824200A1B19242318170E2B0E
:1054F00026250124262D01242635012427D946AA54
:1055000027E145AAFF151E1210120403020024050C
:1055100024000807060000002727464E59616E6EDA
:10552000480AA8C004900CC0089002A008AD7A07F1
:10553000D001C8BEFE87A000BD5287C9FFF0079901
:105540000103E8C8D0F2A90099010368AAC904B010
:1055500049CAD023AD5A07186901C90A9007E90A58
:10556000A09F8C08038D0903AC5F07C88C1403ACA3
:105570005C07C88C160360AD7A07F01DAD5307CAEF
:10558000D009AC7007C003F00249014A900BA00497
:10559000B9ED879904038810F760E9040A0AAAA004
:1055A00000BDF287991C03E8C8C8C8C8C00C90F1B8
:1055B000A92C4C3F86ADA007D00B202082A9078DD7
:1055C000A007EE3C0760AD260729018505AC400326
:1055D0008400AD2107994203AD2007994103A99AA0
:1055E000994303A9008504AA8601BDA10629C085A7
:1055F000030A2A2AA8B9088B8506B90C8B8507BD32
:10560000A1060A0A8502AD1F07290149010A6502A0
:10561000A8A600B1069D4403C8B1069D4503A40495
:10562000A505D00EA5014AB0192603260326034C72
:105630003089A5014AB00F46034603460346034C92
:10564000308946034603E604B9F903050399F903D3
:10565000E600E600A601E8E00D908DA400C8C8C8E9
:10566000A9009941038C4003EE2107AD2107291FB2
:10567000D00DA9808D2107AD200749048D20074C4E
:10568000BD89AD2107291F38E904291F8501AD20F7
:1056900007B0024904290409238500A5014A4A6983
:1056A000C08501A200AC4003A500994103A50118E3
:1056B00069089942038501BDF903994403A9019939
:1056C00043034A9DF903C8C8C8C8E8E00790D999C0
:1056D00041038C4003A9068D73076027272717070E
:1056E000173F0C04FFFFFFFF000F07120F0F0717F4
:1056F0000F0F07171C0F071700A5092907D051AE78
:105700000003E031B04AA8B9C9899D0103E8C8C0C7
:105710000890F4AE0003A9038500AD4E070A0AA85D
:10572000B9D1899D0403C8E8C60010F4AE0003ACEB
:10573000D406B9C3899D0503AD00031869078D0020
:1057400003EED406ADD406C9069005A9008DD40693
:105750006045454747474747475758595A242424E7
:105760002426262626A041A903AE4E07D002A9046E
:1057700020978AA9068D730760206D8AEEF003DEFC
:10578000EC0360A900A003C900F014A000C958F000
:105790000EC951F00AC8C95DF005C952F001C89898
:1057A000AC0003C820978A889818690A4C3F8686FF
:1057B0000084010A0AAAA020A506C9D09002A0244C
:1057C0008403290F0A8504A9008505A5021869200C
:1057D0000A26050A260565048504A50569001865DD
:1057E000038505A401BD398A990303BD3A8A99044A
:1057F00003BD3B8A990803BD3C8A990903A5049916
:105800000103186920990603A5059900039905036A
:10581000A902990203990703A900990A03A6006047
:1058200010AC648C8B8B8C8C242424242727272772
:1058300024242435362537252438242424303026C2
:1058400026263426243124323326243334262626B1
:105850002626262624C024C0247F7F24B8BAB9BBBC
:10586000B8BCB9BDBABCBBBD606461656266636744
:1058700060646165626663676868696926266A6A4A
:105880004B4C4D4E4D4F4D4F4D4E50516B702C2D3E
:105890006C716D726E736F74868A878B888C888C3E
:1058A000898D69698E918F92269326939094696968
:1058B000A4E9EAEB24242424242F243DA2A2A3A3B8
:1058C00024242424A2A2A3A39924992424A23E3F01
:1058D0005B5C24A3242424249D479E474747272715
:1058E0004747474727274747A947AA479B279C275A
:1058F000272727275252525280A081A1BEBEBFBF88
:1059000075BA76BBBABABBBB454745474747474719
:1059100045474547B4B6B5B7454745474547454769
:105920004547454745474547454745474747474713
:1059300047474747474747474747474747474747F7
:105940002424242424242424ABACADAE5D5E5D5E0F
:10595000C124C124C6C8C7C9CACCCBCD2A2A40405D
:1059600024242424244724478283848524472447ED
:10597000868A878B8E918F92242F243D2424243570
:105980003625372524382424242439243A243B245A
:105990003C2424244126412626262626B0B1B2B333
:1059A000777977795355545653555456A5A7A6A8D9
:1059B000C2C4C3C55759585A7B7D7C7E3F00200F17
:1059C0001512250F3A1A0F0F30120F0F27120F2240
:1059D0001627180F1030270F1630270F0F30100022
:1059E0003F00200F291A0F0F36170F0F30210F0F0E
:1059F00027170F0F1627180F1A30270F1630270FEB
:105A00000F3617003F00200F291A090F3C1C0F0FFB
:105A100030211C0F27171C0F1627180F1C36170FC5
:105A20001630270F0C3C1C003F00200F3010000FD9
:105A30003010000F3016000F2717000F1627180F11
:105A40001C36170F1630270F003010003F000422BD
:105A5000300010003F00040F300010003F0004220F
:105A600027160F003F14040F1A3027002548101D79
:105A7000110A17142422181E24160A1B12182B00B0
:105A80002548101D110A17142422181E24151E1251
:105A900010122B0025C5160B1E1D24181E1B2419C1
:105AA0001B12170C0E1C1C24121C24121726050F87
:105AB0000A17181D110E1B240C0A1C1D150E2B0095
:105AC00025A71322181E1B241A1E0E1C1D24121C8F
:105AD00024181F0E1BAF0025E31B200E24191B0EDC
