:020000040800F2
:100000003807002069010008E7010008E301000843
:1000100000000000000000000000000000000000E0
:10002000000000000000000000000000EB010008DC
:100030000000000000000000E9010008790100084C
:100040007B0100087B0100087B0100087B010008A0
:100050007B0100087B0100087B0100087B01000890
:100060007B0100087B0100087B0100087B01000880
:100070007B0100087B0100087B0100087B01000870
:100080007B0100087B0100087B0100087B01000860
:10009000810200087B0100087B0100087B01000849
:1000A0007B0100087B0100087B0100087B01000840
:1000B0007B0100087B0100087B0100087B01000830
:1000C0007B0100087B0100087B0100087B01000820
:1000D0007B0100087B010008000000007B01000894
:1000E0007B0100087B0100087B0100087B01000800
:1000F0000000000000000000000000007B0100087C
:1001000000000000000000000000000000000000EF
:100110000000000000000000000000007B0100085B
:100120007B0100087B0100087B0100087B010008BF
:100130007B0100087B0100087B0100087B010008AF
:100140007B0100087B0100087B0100087B0100089F
:100150007B0100080348854600F014F8004800477A
:10016000CD100008380700200448804704480047A5
:10017000FEE7FEE7FEE7FEE7FEE7FEE7ED0100082B
:1001800055010008064C0125064E05E0E36807CC42
:100190002B430C3C98471034B442F7D3FFF7DEFFF3
:1001A00080230008A023000830B58C180278401C7A
:1001B00013071B0F01D10378401C120906D10278E6
:1001C000401C03E005780D70401C491C5B1EF9D1F2
:1001D00001E00B70491C521EFBD1A142E6D3002066
:1001E00030BDFFE7FEE770477047704780B582B0CB
:1001F0001B490868012210430860FFE7184800689F
:100200008007002801D4FFE7F8E716490868164A76
:10021000104008600868154A1040086010490868D6
:10022000134A10400860134908680F229043086081
:100230001149086840F203129043086008680322DD
:100240009207904308600D4900200190086001F07A
:10025000C3F801990120C00600F07EFF02B080BD06
:1002600000100240041002400C00FF08FFFF007F56
:10027000FFFFF2FE2C100240301002400810024036
:1002800080B501F085FE80BD81B0014668460170F1
:10029000007840B200280DD4FFE76846007841B2EC
:1002A0001F200A4602400120904049098900024A65
:1002B0008850FFE701B0704700E100E070B582B000
:1002C000024601A802700091007840B2002817D4BD
:1002D000FFE701A9087840B20322D3431840184A27
:1002E0008058097849B28C07E50EFF24AC40A04342
:1002F000009CA401E4B2AC402043194088501AE0AD
:1003000001A908780F24204008380322D34318405D
:100310000A4A8058097849B28D07EE0EFF25B5408C
:10032000A843009DAD01EDB2B540284321400839F6
:1003300019408850FFE702B070BDC0461CED00E0D8
:1003400000E400E084B0029001A8017000920298DD
:10035000006E806870B1FFE70298006E816888784F
:10036000C97809024018009908800298006E8068D8
:10037000039004E00099002008800390FFE70398B1
:1003800004B0704783B0029001A8017000920298F7
:10039000006E41688878C978090240180099088081
:1003A0000298006E406803B0704783B0029001A8C5
:1003B000017000920298006E006800780099088031
:1003C0000298006E006803B0704780B582B001905B
:1003D000684601700198007D38B1FFE7019800F090
:1003E000FFFF019900200875FFE701988078032836
:1003F0000AD1FFE70198406E406928B1FFE70198F4
:10040000416E49698847FFE7019801F000F80198BB
:10041000407840B1FFE70198816EC968884701992B
:1004200000204870FFE702B080BD80B582B0019027
:10043000684601700198807803280AD1FFE7019887
:10044000406E806928B1FFE70198416E896988474D
:10045000FFE7019869460A780C215143401818308B
:10046000002319461A4601F017F8019800F0D9FF49
:1004700002B080BD80B586B0059004A8017003A9C4
:10048000012008700598816E0B6B0C30002211461C
:100490009847014602A801800088082804D0FFE799
:1004A000059800F0CAFF47E00598007B60210840EE
:1004B000019040B1FFE7019820280CD0FFE7019898
:1004C000402810D017E0059801460C3101F0EAFEF3
:1004D00003A9087010E0059801460C3101F00EF8F0
:1004E00003A9087008E0059801460C3101F0FBFEF5
:1004F00003A9087000E0FFE703A80078C0B9FFE790
:100500000598408A20B9FFE7059800F08AFF0EE0C1
:100510000598007B0006002804D5FFE7059800F049
:100520006BFF03E0059800F072FFFFE7FFE703E0D1
:10053000059800F082FFFFE706B080BD80B586B069
:100540000490039102A90020087003980078032109
:100550000840019040B1FFE70198012844D0FFE72F
:100560000198022817D040E004988078801E012866
:100570000FD8FFE703988178C0780002401801285F
:1005800006D1FFE704990020087205A9087031E040
:1005900000E0FFE72AE00398007902A908700498B8
:1005A000807803281FD1FFE703988178C078000284
:1005B0004018B8B9FFE702A8007898B1FFE702A891
:1005C000007880280ED0FFE7049802A9097800F08F
:1005D000FBFF0498416ECA680399904705A9002063
:1005E000087007E0FFE701E000E0FFE705A9012050
:1005F0000870FFE705A8007806B080BD80B584B01C
:100600000390029101A9012008700398807800905E
:10061000022804D0FFE70098032809D011E00398CE
:10062000007820B9FFE701A900200870FFE709E082
:100630000398007820B1FFE701A900200870FFE7C8
:1006400000E0FFE701A8007840B9FFE703990846FA
:10065000303001231A4600F00CFFFFE701A80078B4
:1006600004B080BD80B58AB00990089107A9002028
:10067000087006A9087005A9012008700998303093
:1006800004900898007803210840039048B1FFE7E0
:100690000398012800D184E00398022800D188E063
:1006A00088E00898C17807A801700899897806AA97
:1006B00011700078401E02900E2870D802998A00AE
:1006C00001A080188746C04600F01CB800F036B87C
:1006D00000F044B800F058B800F056B800F054B834
:1006E00000F052B800F050B800F059B800F057B818
:1006F00000F055B800F053B800F051B800F04FB812
:1007000000F043B807A8007880004A494018001F4D
:100710000368099806A90978049A08329847049949
:10072000486008988179C07900024018402804D1B7
:10073000FFE7049908200881FFE731E007A8007867
:1007400080003C494018001F0368099806A90978F1
:10075000049A083298470499486021E006A8007876
:10076000052810DCFFE707A8007880003149401811
:10077000001F0368099806A90978049A0832984767
:1007800004994860FFE70BE00AE0099806A9097898
:10079000049A0832FFF7D6FD0499486000E0FFE7AD
:1007A00009E00998416ECA680899904705A9087040
:1007B00001E000E0FFE704980089B8B3FFE708987C
:1007C0008179C0790002401880B3FFE7049800895E
:1007D00008998A79C97909028918884204DAFFE7F9
:1007E00004980089019006E008988179C079000298
:1007F00040180190FFE70198049908810498008946
:100800000999498A88420DDAFFE70499088909881D
:10081000B0FBF1F25143401A20B9FFE709990120DA
:100820000875FFE705A900200870FFE705A8007814
:100830000AB080BD3802002080B584B002900191DA
:10084000029880780090012808D0FFE700980228DD
:1008500005D0FFE70098032802D013E013E012E070
:100860000198007968B9FFE7029908463030496E6F
:10087000891C01231A4600F0FCFD03A90020087022
:1008800005E000E0FFE703A901200870FFE703A8E7
:10089000007804B080BD000080B586B0059004915A
:1008A0000498007903A9087002A90120087004982F
:1008B000007803210840019040B1FFE7019801282A
:1008C0002AD0FFE70198022834D05AE005988078B2
:1008D000801E01281ED8FFE70598007920B1FFE7A8
:1008E00030490120087003E02E4900200870FFE71E
:1008F0000598007A30B1FFE72A49087802221043B0
:10090000087003E0274900200870FFE702A90020D3
:10091000087000E0FFE735E005988078032808D1EB
:10092000FFE703A8007820B9FFE702A900200870BC
:10093000FFE727E005988078032821D1FFE703A887
:100940000078000600280DD5FFE7059803A90A786E
:100950007F210A400C21514340183221405C11494B
:10096000087009E0059803A90A780C215143401842
:10097000807E0C490870FFE702A900200870FFE79D
:1009800000E0FFE702A8007840B9FFE705983030A3
:10099000044902231A4600F06CFDFFE702A8007824
:1009A00006B080BD9802002082B001900091012025
:1009B00002B0704783B001900091009801794079AE
:1009C0000002401818BBFFE700988179C079000247
:1009D0004018E0B9FFE7009880787F21084001992E
:1009E000487001988078032810D0FFE7019840787C
:1009F00020B1FFE701990220887003E001990120EE
:100A00008870FFE702A90020087004E0FFE702A950
:100A100001200870FFE702A8007803B070470000CB
:100A200080B586B00590049103A901200870049850
:100A30008178304801700078012857D8FFE7059881
:100A40008078029001284ED0FFE70298022804D057
:100A5000FFE70298032817D046E02648007878B1CF
:100A6000FFE70598416E4A6822490191097890474D
:100A70000198007805990870059903208870FFE7B0
:100A800003A90020087030E01A48007878B9FFE721
:100A90000598416E8A681749009109789047009837
:100AA00000780599087005990220887017E01148B0
:100AB00000780599097888420FD0FFE70598416EC4
:100AC0008A68017890470B490878059A1070059854
:100AD000426E52680978904700E0FFE7FFE703A9FC
:100AE0000020087001E000E0FFE7FFE703A80078BE
:100AF00006B080BD9A02002082B0019000910020D3
:100B000002B0704780B586B00490039102A900201E
:100B100008700398007803210840019040B1FFE776
:100B20000198012840D0FFE70198022818D03CE046
:100B300004988078801E012810D8FFE703988178F8
:100B4000C07800024018012807D1FFE7049901206E
:100B5000087205A9002008702CE000E0FFE725E0FE
:100B60000398007902A908700498807803281AD1A4
:100B7000FFE703988178C0780002401890B9FFE73A
:100B800002A8007870B1FFE702A80078802809D099
:100B9000FFE7049802A9097801F08EF805A9002062
:100BA000087007E0FFE701E000E0FFE705A901208A
:100BB0000870FFE705A8007806B080BD84B00290F9
:100BC0000191029880780090012808D0FFE70098F2
:100BD000022805D0FFE70098032802D00FE00FE0BD
:100BE0000EE00198007948B9FFE7019880780299F2
:100BF000496E887003A90020087005E000E0FFE757
:100C000003A901200870FFE703A8007804B070472B
:100C100082B001900091002002B0704785B0009131
:100C200001460098049103A9087002920498006E8E
:100C3000C0680978890040580190019800780299AD
:100C40000880019805B0704783B001900091019829
:100C500000690099084204D0FFE702A9012008704A
:100C600003E002A900200870FFE702A8007803B0A3
:100C7000704787B006900591049203930698006828
:100C800001900698C068009002A900200880FFE744
:100C900002A800880F282BD8FFE702A80188039834
:100CA000C840C007F0B1FFE702A80188490003224D
:100CB00013468B40019999430191059B0188490096
:100CC0008B40019919430191018849008A4000999C
:100CD00091430091049900884000814000980843A6
:100CE0000090FFE7FFE70298401C02A90880CFE7C9
:100CF00001980699086000980699C86007B0704787
:100D000080B584B0039002A801700398C06E019072
:100D10000198807A58B1FFE7019900208872039802
:100D2000019A08328121082300F030FE03E0019986
:100D300001200874FFE704B080BD80B582B0019047
:100D4000684601700198812100F01EFD002002B06C
:100D500080BD000080B584B0039002A801701148E6
:100D6000019000210161C1608160416001600398D0
:100D70009F4B1B33502200F079FD0198E749C96968
:100D8000039AD165012101740399C8660398006F25
:100D900028B1FFE70398006F00688047FFE7002055
:100DA00004B080BD9C02002083B0019000910098A7
:100DB00038B1FFE700980199086702A90020087080
:100DC00003E002A902200870FFE702A8007803B040
:100DD000704780B586B005900598C06E0490049861
:100DE000007C002844D0FFE700F04EF90146039153
:100DF000012804D0FFE70398022804D007E00499F3
:100E00000420887204E004990520887200E0FFE75E
:100E10000498807A58B3FFE705980B2100F0E4F9B5
:100E20000598082100F0E0F905980F21029100F0E3
:100E3000DBF90299059800F0D7F905981221019184
:100E400000F0D2F905981A2100F0CEF90199059821
:100E500000F0CAF90598152100F0C6F90299059825
:100E600000F0C2F90598072100F0BEF9FFE7FFE79F
:100E700006B080BD80B586B00590049103A90A80B4
:100E80000598C06E0290029A002001901074059897
:100E9000049A0B88812100F079FD019806B080BD8D
:100EA00080B58CB00B900A9109A9012008700B98AD
:100EB000C06E08900A984078401E07900A2800D912
:100EC00090E007998A0001A08018874600F014B8C6
:100ED00000F013B800F01EB800F084B800F082B83B
:100EE00000F035B800F07EB800F07CB800F01EB815
:100EF00000F01DB800F023B875E00B983030089969
:100F0000091D01220023069300F0D9FA069809A9C9
:100F1000087068E00B98303008990122002305938F
:100F200000F0CDFA059809A908705CE05BE00A982A
:100F3000C0780899486009A90020087053E00A9811
:100F400080780899086009A9002008704BE00A9889
:100F5000C078222821D1FFE70B98303004900A98FE
:100F60008179C079000240182F2803D3FFE72E2093
:100F7000039006E00A988179C07900024018039036
:100F8000FFE7049803998AB21A490023029300F0FC
:100F900096FA029809A9087023E00A98C0782128D7
:100FA0001ED1FFE70B98303001900A988179C07903
:100FB000000240180A2803D3FFE70920009006E04A
:100FC0000A988179C079000240180090FFE70198E3
:100FD000009A0749123192B2002300F070FAFFE73D
:100FE000FFE700E0FFE709A800780CB080BDC0462D
:100FF000640000205023000884B00390029101A8EF
:101000000270694600200870FFE76846007801A971
:101010000978884227DAFFE70398000F092809D8E2
:10102000FFE70398000F303002996A4612785200A9
:10103000885408E00398000F373002996A46127806
:1010400052008854FFE70398000103900299684614
:1010500000784000411800204870FFE70098401CCD
:1010600069460870D1E704B07047000080B50548B4
:1010700000F08EF80920C006002201231146FFF778
:10108000F8FD80BD1105000080B582B00920C006C2
:101090000121FFF7D9FD012810D1FFE7C82000F09A
:1010A000FBF80920C0060121FFF7CEFD012804D17D
:1010B000FFE701A90220087004E0FFE701A9002072
:1010C0000870FFE701A8007802B080BD80B582B04B
:1010D0000020019000F050F80D4800900D49FFF7F6
:1010E00063FE00980C490D4A00F0FAFE00F018F873
:1010F000009800F021FAFFE705488078032801D026
:10110000FFE7F9E7FFE70348416801488847FAE746
:10111000B002002038000020900000204000002095
:1011200080B51420022100F001F880BD80B584B0A4
:101130000A46014603A80190017002A90A700078CE
:1011400040B20978FFF7BAF80198007840B2FFF78B
:101150009BF804B080BD000082B00190009101981E
:101160000099034A114008430249086002B07047E1
:1011700080FFFF1F08ED00E080B542F2000000F0A4
:1011800019F8024800F004F880BDC04617070000B7
:1011900081B001466846018000881F220146114047
:1011A00001238B408109864A88581843885001B032
:1011B0007047C04681B000900549086842F20002BD
:1011C00090430860009A08681043086001B07047B7
:1011D0003010024080B582B001900198806E406965
:1011E000804702B080BD000080B584B0039002A8A3
:1011F00001700398C06E019002980199887203985B
:10120000019908310822FFF735FE024800F044F842
:1012100004B080BDDC05000080B586B0059005985F
:10122000007806281ED0FFE7184800680490184888
:1012300000680390174800680290029904984018CB
:101240000490049868B1FFE704980599891C082266
:10125000FFF7D2FE0398059912310422FFF7CCFE66
:10126000FFE70EE0084800680190019840B1FFE7F1
:1012700001980599488001A8408805998880FFE772
:10128000FFE706B080BDC04600210240E8F7FF1F1F
:10129000ECF7FF1FF0F7FF1F83B002A9088001A938
:1012A00000200880FFE701A80088632818DCFFE71A
:1012B000694600200880FFE76846008802A909887F
:1012C000884207DAFFE700BFFFE70098401C694645
:1012D0000880F1E7FFE70198401C01A90880E2E7D8
:1012E00003B0704710B584B00020039002903449D9
:1012F00008680122120410430860FFE70398401CAD
:1013000003902F4800680121490408400290FFE73C
:1013100002990020019039B9FFE703982949401A42
:10132000411E88410190FFE70198C0070028E5D1E0
:10133000FFE7234800688003002802D4FFE7FFE7A7
:10134000FEE72149086801221043062398430860FC
:101350001E4900910868086008680860086808600D
:101360001B4B18680F24A04318600868194B1840DD
:101370000860086811231B041843086010490868B6
:10138000120610430860FFE70D480068800100283E
:1013900001D4FFE7F8E70D4908680322904308608D
:1013A0000868022210430860FFE7084800680C2123
:1013B0000840082801D0FFE7F7E704B010BDC04699
:1013C00000100240FFFF0000002002400410024015
:1013D0002C100240FFFF007F80B5FFF783FF80BD28
:1013E00080B582B001900198816ECB6A406B00227B
:1013F0001146984702B080BD80B582B00190019837
:10140000426B038F002100F0C1FA02B080BD80B5AD
:1014100082B001900198816E8A6A0021904702B0E3
:1014200080BD80B582B001900198816ECB6A406B1F
:1014300000221146984702B080BD80B582B001906D
:101440000198002100F047FC02B080BD10B584B0C7
:101450000390029101A802806846038002980399D4
:10146000486001980399088100980399488104B065
:1014700010BD10B584B00390029101A802806846A7
:1014800003800298039948600198039908810098A5
:101490000399488104B010BD10B584B00390029147
:1014A00001A8028068460380029803994860019869
:1014B0000399088100980399488104B010BD10B5C4
:1014C00084B00390029101A80280684603800298CC
:1014D000039948600198039908810098039948810D
:1014E00004B010BD81B0009000984078802108437E
:1014F0000149086001B070474C5C004080B584B081
:10150000029001910298807803280DD1FFE701989D
:10151000007940B9FFE70298416ECA680199904787
:1015200003A9087004E0FFE703A901200870FFE7A2
:1015300003A8007804B080BD80B582B00190019806
:10154000806E81680120884701990520887002B06B
:1015500080BD00000D4901200860002008600C4A91
:101560001060044A1060086849F600721043086071
:101570007047C046505C0040044901200860044A9E
:1015800000201060032008607047C046405C0040A7
:10159000445C004081B00146684601700078012833
:1015A00007D1FFE70749086848F2000210430860C6
:1015B00006E00449086848F2000290430860FFE72B
:1015C00001B07047585C004080B584B0019101467D
:1015D0000198039102A908700398826E926B0978B2
:1015E000904704B080BD000087B0059004A801704A
:1015F00003A8027002AA0021118001AA11800091A3
:101600000078A8B9FFE7CF48026804A90B781B014E
:10161000D218D268374B1A4001AB1A80006809789B
:1016200009014018806840005649401800903CE08D
:1016300003A80078012833D1FFE704A800788000D0
:10164000D04940584006002814D5FFE7BD4802683D
:1016500004A90B781B01D2185268264B1A4001AB23
:101660001A8000680978090140584000454940182F
:10167000009014E0B348026804A90B781B01D2184B
:10168000D2681C4B1A4001AB1A8000680978090126
:101690004018806840003B4940180090FFE703E095
:1016A00006A90020088020E0FFE702A900200880AA
:1016B000FFE702A8008801A90988491C4908884257
:1016C0000FD2FFE70098011D00910068059908807E
:1016D0000598801C0590FFE70298401C02A908802D
:1016E000E7E7019806A90880FFE706A8008807B089
:1016F0007047C046FF03000085B0049003A8017046
:1017000002A80280008820B3FFE78E48006803A982
:1017100009780901405840001A49401800900020FB
:101720000190FFE7019802A90988491C49088842ED
:101730000ED2FFE70498008800990A1D0092086005
:101740000498801C0490FFE70198401C0190E9E791
:10175000FFE702A800887B49096803AA12781201F2
:1017600089184860FFE703A908788000854A8058F7
:101770003D4B184030235840097889008850FFE7D6
:1017800005B070470060004080B584B0019101460B
:101790000198039102A908700398826E526A097831
:1017A000904704B080BD000083B0029001A8017092
:1017B00001787F2211406A4611700078C00930B369
:1017C000FFE7FFE76846007880006E494058400612
:1017D00000280ED5FFE7FFE7694608788000694AD0
:1017E0008058204B18404030097889008850FFE726
:1017F000FFE7FFE7FFE7694608788000614A805805
:10180000194B1840097889008850FFE727E0FFE767
:101810006846007880005B4940584004002810D595
:10182000FFE7FFE7694608788000564A80580D4B6D
:10183000184044F20003C018097889008850FFE777
:10184000FFE7FFE7FFE76946087880004D4A8058C8
:101850004D4B1840097889008850FFE7FFE703B037
:101860007047C0468F8F0000BF8F000010B586B054
:10187000019101460198059104A908700392029311
:101880000598826E146A0978039A029BA04706B0F5
:1018900010BD000083B0029001A9002008700299D9
:1018A0003031009127490B6820221A600A68506085
:1018B000009A40201080029A1832009209688860CD
:1018C00000990880009800883F280BD3FFE7009814
:1018D00000884001401E48F200010843F4490968AD
:1018E000C86009E000980088401C0121884340023C
:1018F000EF490968C860FFE701A901200870FFE708
:1019000001A80078012811D8FFE701A90878800014
:10191000E64A80580E4B18400978084389008850E1
:10192000FFE70198401C01A90870E9E7DF49064874
:10193000086006498020086002990120887003B081
:101940007047C04634000020203200004C5C00404C
:101950007070FFFF82B0019068460170FFE7694632
:1019600008784006C00DD14A8058D24B184043F247
:101970000003584009784906C90D8850FFE702B0B6
:101980007047C046005C00408FBF000010B58AB0B1
:10199000029101460298099108A90870079206A8C9
:1019A000038009787F22114005AA117009991378E4
:1019B0000C225A438918303104910088049909880F
:1019C000884204DAFFE706A80088019003E0049843
:1019D00000880190FFE7019803AA009210800998FF
:1019E000806EC36A079805A9097812889847009AFB
:1019F000049807991388C918069AD21A92B2FFF769
:101A000025FD0AB010BD0000B0B588B0079006A84B
:101A10000170059204930498817803A801700178FD
:101A20007F22114002AA117004990B7949790902A9
:101A3000C91801AB1980002100910499C978890760
:101A40000B0F9949C958127811439200E34BD150BA
:101A50000078C009002862D0FFE7079802A90A7839
:101A60000C215143401830300090019800990880B3
:101A700006A80078B0B9FFE705988D49096802AA61
:101A8000127812018850FFE702A908788000D34A33
:101A90008058D44B1840202358400978890088503A
:101AA000FFE73BE006A80078012835D1FFE702AA4E
:101AB00010788000F84BC05840F200110843C84924
:101AC000084011788900C85005A8038878490C6837
:101AD00015782D0163514088096812781201891820
:101AE0008860FFE702A908788000FC4A8058EC4B28
:101AF000184030235840097889008850FFE7FFE7F5
:101B000002A908788000F54A8058E44B184009780B
:101B100089008850FFE700E0FFE7FFE7C2E0079891
:101B200002A90A780C2151434018183000900198FE
:101B30000099088006A8007848B9FFE705985C4935
:101B4000096802AA127812018918886051E006A873
:101B5000007801284BD1FFE702A908788000DF4A0E
:101B6000805840F2001318439D4B184009788900B3
:101B70008850FFE702A908788000D84A8058984B1F
:101B800018404030097889008850FFE705A803888D
:101B900047490C6802AA15782D01635140880968ED
:101BA000127812018918886001A800883F280FD395
:101BB000FFE701A800884001401E48F200010843E9
:101BC0003B49096802AA12781201891848600DE0A1
:101BD00001A80088401C012188434002344909685B
:101BE00002AA1278120189184860FFE700E0FFE7B7
:101BF000FFE701A800883F280FD3FFE701A800886E
:101C00004001401E48F2000108432949096802AA20
:101C1000127812018918C8600DE001A80088401CE4
:101C20000121884340022249096802AA1278120160
:101C30008918C860FFE706A8007880B9FFE7FFE7CA
:101C400002A908788000A54A8058944B184042F2B7
:101C500000035840097889008850FFE721E006A872
:101C6000007801281BD1FFE7FFE702A90878800070
:101C70009A4A8058894B1840097889008850FFE7B4
:101C8000FFE702A908788000944A8058844B1840E6
:101C900020235840097889008850FFE700E0FFE7DB
:101CA000FFE7FFE708B0B0BD40230008005C00403C
:101CB000340000208FBF000080B584B00191014640
:101CC0000198039102A908700398826E526B0978FB
:101CD000904704B080BD80B584B001910146019861
:101CE000039102A908700398826E526B097890479D
:101CF00004B080BD83B0029001A8017001787F22FA
:101D000011406A4611700078C00988B3FFE7FFE709
:101D100068460078800071494058400600280ED57A
:101D2000FFE7FFE76946087880006C4A80582C4B33
:101D300018404030097889008850FFE7FFE7FFE747
:101D4000029869460A780C2151434118322200203A
:101D50008854FFE7694608788000604A8058504BF5
:101D6000184030235840097889008850FFE732E056
:101D7000FFE7684600788000584940584004002832
:101D800010D5FFE7FFE7694608788000534A80587E
:101D9000134B184044F20003C0180978890088509A
:101DA000FFE7FFE7FFE7029869460A780C215143F5
:101DB000411800208876FFE7694608788000474A86
:101DC0008058364B184043F2000358400978890088
:101DD0008850FFE7FFE703B07047C046005C004053
:101DE0008F8F0000BF8F000083B0029001A80170A8
:101DF00001787F200140684601700078A0B9FFE7B4
:101E0000FFE736490868264A104010225040086013
:101E1000FFE7FFE731490868204A104041F200021D
:101E200050400860FFE735E001A80078C009C0B164
:101E3000FFE7029869460A780C2151434118322283
:101E400001208854FFE7694608788000234A8058BB
:101E5000134B184010235840097889008850FFE739
:101E600017E0029869460A780C2151434118012075
:101E70008876FFE7694608788000F94A8058074B62
:101E8000184041F200035840097889008850FFE764
:101E9000FFE7FFE703B07047005C00408FBF000022
:101EA000BF8F000084B0029001A80170017849063C
:101EB000C90DEB4A895800910078C00930B1FFE79D
:101EC00000983021084003A9087003E003A900200E
:101ED0000870FFE703A8007804B07047005C00407A
:101EE00080B584B0039002910192ED4A08201070F1
:101EF0000120507040F200215180039951600299F5
:101F0000039A11660199039A5166039A10499166E2
:101F1000039A10499164039A0F49D164039A0F49B7
:101F20001165039A116E4968C9794023194049091E
:101F300011710399C8710398806E006880470398F7
:101F4000006EC068C068FFF767F904B080BDC04686
:101F500044020020750400082B040008CB0300088D
:101F600080B582B00190019880780199C87001997C
:101F7000042088700198C07920B1FFE7019800F033
:101F8000A9F903E0019903208871FFE702B080BD41
:101F900080B588B0AB48016807AA11800068CC49B9
:101FA00009680140FF20814306A80180BC494968B7
:101FB000059100880004002800D4C4E0FFE7A14890
:101FC000006807A908800004002800D4BAE007A828
:101FD00001880F22114004AA11700088C006002851
:101FE00072D5FFE704A8007880009D49405800049E
:101FF000002868D5FFE7FFE704A800788100984A29
:102000008858994B18408850FFE704A80078800052
:1020100093494058000500280FD5FFE704A8007831
:1020200048B9FFE7059804A909780C224A438218A9
:10203000926C904700E002E144E0059804A90B7817
:102040000C225A438018183003900598806E036B59
:1020500003984068097800229847014602A8018049
:1020600002880399486880184860029A0399488951
:1020700080184881039948890989884207DAFFE76F
:1020800002A8008803990988884213DAFFE70598B7
:1020900004A90A780C2151434018C06C48B1FFE7ED
:1020A000059804A909780C224A438218D26C9047FB
:1020B000FFE706E00598816E8A6A04A909789047CF
:1020C000FFE7FFE7FFE73CE004A8007880006449F1
:1020D00040580006002833D5FFE7FFE704A8007842
:1020E00081005F4A88585F4B18408850FFE7059889
:1020F00004A90A780C21514340183030019001980E
:10210000008998B9FFE7059804A90A780C21514382
:102110004018006D48B1FFE7059804A909780C2222
:102120004A438218126D9047FFE708E0059804A91A
:102130000978019B5A681B89FFF728FCFFE7FFE736
:10214000FFE73CE7FFE706A80088C004002810D599
:10215000FFE73C493C4808600598C07805998870BD
:102160000598407A20B9FFE70598FFF733F8FFE7B5
:10217000FFE706A80088000500280ED5FFE75448B1
:102180000068C006002807D4FFE70598FFF7E8FEBF
:102190002C492E480860FFE7FFE706A80088800565
:1021A00000280ED5FFE7274929480860294800681C
:1021B00030B1FFE727480068016805988847FFE7C6
:1021C000FFE706A80088C00500282AD5FFE71D49BB
:1021D000214808600598807910B3FFE70599887950
:1021E000401E88710006D0B9FFE70598407A48B1D3
:1021F000FFE73749086810229043086005990020DE
:1022000048720BE0324908681022104308600599B3
:1022100003208871059901204872FFE7FFE7FFE777
:10222000FFE706A800884005002808D5FFE7054914
:102230000A4808600598816EC9698847FFE708B0B9
:1022400080BDC046445C0040FFEFFFFFFFF7FFFF8B
:10225000FFFDFFFF30030020FFFEFFFFFFFBFFFF3E
:10226000005C00400F8F00008F0F000018490868C5
:102270000422904308600868082290430860704771
:1022800081B0009006484068007A012806D1FFE737
:102290000F490868102210430860FFE701B070473B
:1022A0002803002080B582B0019000910099487801
:1022B0008200034882580198904702B080BDC04612
:1022C00000000020024908680C2210430860704793
:1022D000405C004080B582B001900198806E00693A
:1022E000804702B080BD80B584B002900191029811
:1022F000807803280DD1FFE70298406E006940B155
:10230000FFE70298416E0A690199904703A9087096
:1023100003E003A901200870FFE703A8007804B0D8
:1023200080BD02E008C8121F08C1002AFAD1704718
:102330007047002001E001C1121F002AFBD1704745
:102340000002000000040000000000000006000081
:1023500005010906A101050719E029E71500250176
:102360009508750181029501750881039506750828
:10237000150026FF000507190029658100C000002F
:10238000A02300080000002098020000A801000817
:10239000D024000898020020A00400003223000886
:1023A0002F990800083D050008A9090008050B2C15
:1023B00008A9090008B509000865062C08F90A00F3
:1023C00008FD050008210A2E0839080008BD0B0089
:1023D00008110C00085C6000406D100008D30D006F
:1023E00008DD550D00083B0D0008A10E0008550141
:1023F0000D00083C09022200010100A03209042E50
:102400000103010100092111010001222EB8070575
:10241000810308004032A033206452204984020026
:1024200020120100022F40E928800300010102036D
:10243000011603472E6900670061004400650076BD
:102440000069046E6300652E2403470044003300D6
:1024500032002D00552E530042005F004B006500F6
:1024600079006208606F00610072006403811A03E2
:102470002FAB030008850300081D0C000855152C20
:10248000087915000895150008E5142C08C52200E8
:10249000086D22000881222C0895180008091A00EE
:1024A00008A9172C0855190008F9160008E9152C79
:1024B00008E91D0008F51C0008A51E370894020055
:1024C00020B21E2034010020B601002004030904BC
:040000050800015599
:00000001FF
